{
  "_format": "hh-sol-artifact-1",
  "contractName": "YapTokenV4",
  "sourceName": "contracts/YapToken.sol",
  "abi": [
    {
      "inputs": [],
      "name": "AccessControlBadConfirmation",
      "type": "error"
    },
    {
      "inputs": [
        {
          "internalType": "address",
          "name": "account",
          "type": "address"
        },
        {
          "internalType": "bytes32",
          "name": "neededRole",
          "type": "bytes32"
        }
      ],
      "name": "AccessControlUnauthorizedAccount",
      "type": "error"
    },
    {
      "inputs": [
        {
          "internalType": "address",
          "name": "target",
          "type": "address"
        }
      ],
      "name": "AddressEmptyCode",
      "type": "error"
    },
    {
      "inputs": [],
      "name": "ECDSAInvalidSignature",
      "type": "error"
    },
    {
      "inputs": [
        {
          "internalType": "uint256",
          "name": "length",
          "type": "uint256"
        }
      ],
      "name": "ECDSAInvalidSignatureLength",
      "type": "error"
    },
    {
      "inputs": [
        {
          "internalType": "bytes32",
          "name": "s",
          "type": "bytes32"
        }
      ],
      "name": "ECDSAInvalidSignatureS",
      "type": "error"
    },
    {
      "inputs": [
        {
          "internalType": "address",
          "name": "implementation",
          "type": "address"
        }
      ],
      "name": "ERC1967InvalidImplementation",
      "type": "error"
    },
    {
      "inputs": [],
      "name": "ERC1967NonPayable",
      "type": "error"
    },
    {
      "inputs": [
        {
          "internalType": "address",
          "name": "spender",
          "type": "address"
        },
        {
          "internalType": "uint256",
          "name": "allowance",
          "type": "uint256"
        },
        {
          "internalType": "uint256",
          "name": "needed",
          "type": "uint256"
        }
      ],
      "name": "ERC20InsufficientAllowance",
      "type": "error"
    },
    {
      "inputs": [
        {
          "internalType": "address",
          "name": "sender",
          "type": "address"
        },
        {
          "internalType": "uint256",
          "name": "balance",
          "type": "uint256"
        },
        {
          "internalType": "uint256",
          "name": "needed",
          "type": "uint256"
        }
      ],
      "name": "ERC20InsufficientBalance",
      "type": "error"
    },
    {
      "inputs": [
        {
          "internalType": "address",
          "name": "approver",
          "type": "address"
        }
      ],
      "name": "ERC20InvalidApprover",
      "type": "error"
    },
    {
      "inputs": [
        {
          "internalType": "address",
          "name": "receiver",
          "type": "address"
        }
      ],
      "name": "ERC20InvalidReceiver",
      "type": "error"
    },
    {
      "inputs": [
        {
          "internalType": "address",
          "name": "sender",
          "type": "address"
        }
      ],
      "name": "ERC20InvalidSender",
      "type": "error"
    },
    {
      "inputs": [
        {
          "internalType": "address",
          "name": "spender",
          "type": "address"
        }
      ],
      "name": "ERC20InvalidSpender",
      "type": "error"
    },
    {
      "inputs": [
        {
          "internalType": "uint256",
          "name": "deadline",
          "type": "uint256"
        }
      ],
      "name": "ERC2612ExpiredSignature",
      "type": "error"
    },
    {
      "inputs": [
        {
          "internalType": "address",
          "name": "signer",
          "type": "address"
        },
        {
          "internalType": "address",
          "name": "owner",
          "type": "address"
        }
      ],
      "name": "ERC2612InvalidSigner",
      "type": "error"
    },
    {
      "inputs": [],
      "name": "FailedCall",
      "type": "error"
    },
    {
      "inputs": [
        {
          "internalType": "address",
          "name": "account",
          "type": "address"
        },
        {
          "internalType": "uint256",
          "name": "currentNonce",
          "type": "uint256"
        }
      ],
      "name": "InvalidAccountNonce",
      "type": "error"
    },
    {
      "inputs": [],
      "name": "InvalidInitialization",
      "type": "error"
    },
    {
      "inputs": [],
      "name": "NotInitializing",
      "type": "error"
    },
    {
      "inputs": [],
      "name": "UUPSUnauthorizedCallContext",
      "type": "error"
    },
    {
      "inputs": [
        {
          "internalType": "bytes32",
          "name": "slot",
          "type": "bytes32"
        }
      ],
      "name": "UUPSUnsupportedProxiableUUID",
      "type": "error"
    },
    {
      "anonymous": false,
      "inputs": [
        {
          "indexed": true,
          "internalType": "address",
          "name": "owner",
          "type": "address"
        },
        {
          "indexed": true,
          "internalType": "address",
          "name": "spender",
          "type": "address"
        },
        {
          "indexed": false,
          "internalType": "uint256",
          "name": "value",
          "type": "uint256"
        }
      ],
      "name": "Approval",
      "type": "event"
    },
    {
      "anonymous": false,
      "inputs": [],
      "name": "EIP712DomainChanged",
      "type": "event"
    },
    {
      "anonymous": false,
      "inputs": [
        {
          "indexed": true,
          "internalType": "address",
          "name": "oldHot",
          "type": "address"
        },
        {
          "indexed": true,
          "internalType": "address",
          "name": "newHot",
          "type": "address"
        }
      ],
      "name": "HotWalletUpdated",
      "type": "event"
    },
    {
      "anonymous": false,
      "inputs": [
        {
          "indexed": false,
          "internalType": "uint64",
          "name": "version",
          "type": "uint64"
        }
      ],
      "name": "Initialized",
      "type": "event"
    },
    {
      "anonymous": false,
      "inputs": [
        {
          "indexed": false,
          "internalType": "uint64",
          "name": "oldDuration",
          "type": "uint64"
        },
        {
          "indexed": false,
          "internalType": "uint64",
          "name": "newDuration",
          "type": "uint64"
        }
      ],
      "name": "LockDurationUpdated",
      "type": "event"
    },
    {
      "anonymous": false,
      "inputs": [
        {
          "indexed": true,
          "internalType": "address",
          "name": "oldRelayer",
          "type": "address"
        },
        {
          "indexed": true,
          "internalType": "address",
          "name": "newRelayer",
          "type": "address"
        }
      ],
      "name": "RelayerUpdated",
      "type": "event"
    },
    {
      "anonymous": false,
      "inputs": [
        {
          "indexed": true,
          "internalType": "bytes32",
          "name": "role",
          "type": "bytes32"
        },
        {
          "indexed": true,
          "internalType": "bytes32",
          "name": "previousAdminRole",
          "type": "bytes32"
        },
        {
          "indexed": true,
          "internalType": "bytes32",
          "name": "newAdminRole",
          "type": "bytes32"
        }
      ],
      "name": "RoleAdminChanged",
      "type": "event"
    },
    {
      "anonymous": false,
      "inputs": [
        {
          "indexed": true,
          "internalType": "bytes32",
          "name": "role",
          "type": "bytes32"
        },
        {
          "indexed": true,
          "internalType": "address",
          "name": "account",
          "type": "address"
        },
        {
          "indexed": true,
          "internalType": "address",
          "name": "sender",
          "type": "address"
        }
      ],
      "name": "RoleGranted",
      "type": "event"
    },
    {
      "anonymous": false,
      "inputs": [
        {
          "indexed": true,
          "internalType": "bytes32",
          "name": "role",
          "type": "bytes32"
        },
        {
          "indexed": true,
          "internalType": "address",
          "name": "account",
          "type": "address"
        },
        {
          "indexed": true,
          "internalType": "address",
          "name": "sender",
          "type": "address"
        }
      ],
      "name": "RoleRevoked",
      "type": "event"
    },
    {
      "anonymous": false,
      "inputs": [
        {
          "indexed": true,
          "internalType": "address",
          "name": "owner",
          "type": "address"
        },
        {
          "indexed": false,
          "internalType": "uint256",
          "name": "amount",
          "type": "uint256"
        },
        {
          "indexed": false,
          "internalType": "uint256",
          "name": "burned",
          "type": "uint256"
        },
        {
          "indexed": false,
          "internalType": "uint256",
          "name": "sentToTreasury",
          "type": "uint256"
        }
      ],
      "name": "TokenSpent",
      "type": "event"
    },
    {
      "anonymous": false,
      "inputs": [
        {
          "indexed": true,
          "internalType": "address",
          "name": "from",
          "type": "address"
        },
        {
          "indexed": true,
          "internalType": "address",
          "name": "to",
          "type": "address"
        },
        {
          "indexed": false,
          "internalType": "uint256",
          "name": "value",
          "type": "uint256"
        }
      ],
      "name": "Transfer",
      "type": "event"
    },
    {
      "anonymous": false,
      "inputs": [
        {
          "indexed": true,
          "internalType": "address",
          "name": "oldTreasury",
          "type": "address"
        },
        {
          "indexed": true,
          "internalType": "address",
          "name": "newTreasury",
          "type": "address"
        }
      ],
      "name": "TreasuryUpdated",
      "type": "event"
    },
    {
      "anonymous": false,
      "inputs": [
        {
          "indexed": true,
          "internalType": "address",
          "name": "implementation",
          "type": "address"
        }
      ],
      "name": "Upgraded",
      "type": "event"
    },
    {
      "inputs": [],
      "name": "DEFAULT_ADMIN_ROLE",
      "outputs": [
        {
          "internalType": "bytes32",
          "name": "",
          "type": "bytes32"
        }
      ],
      "stateMutability": "view",
      "type": "function"
    },
    {
      "inputs": [],
      "name": "DOMAIN_SEPARATOR",
      "outputs": [
        {
          "internalType": "bytes32",
          "name": "",
          "type": "bytes32"
        }
      ],
      "stateMutability": "view",
      "type": "function"
    },
    {
      "inputs": [],
      "name": "LOCK_EXEMPT_ROLE",
      "outputs": [
        {
          "internalType": "bytes32",
          "name": "",
          "type": "bytes32"
        }
      ],
      "stateMutability": "view",
      "type": "function"
    },
    {
      "inputs": [],
      "name": "SPENDER_ROLE",
      "outputs": [
        {
          "internalType": "bytes32",
          "name": "",
          "type": "bytes32"
        }
      ],
      "stateMutability": "view",
      "type": "function"
    },
    {
      "inputs": [],
      "name": "UPGRADER_ROLE",
      "outputs": [
        {
          "internalType": "bytes32",
          "name": "",
          "type": "bytes32"
        }
      ],
      "stateMutability": "view",
      "type": "function"
    },
    {
      "inputs": [],
      "name": "UPGRADE_INTERFACE_VERSION",
      "outputs": [
        {
          "internalType": "string",
          "name": "",
          "type": "string"
        }
      ],
      "stateMutability": "view",
      "type": "function"
    },
    {
      "inputs": [
        {
          "internalType": "address",
          "name": "user",
          "type": "address"
        }
      ],
      "name": "adminClearAllLocksForExempt",
      "outputs": [],
      "stateMutability": "nonpayable",
      "type": "function"
    },
    {
      "inputs": [
        {
          "internalType": "address",
          "name": "owner",
          "type": "address"
        },
        {
          "internalType": "address",
          "name": "spender",
          "type": "address"
        }
      ],
      "name": "allowance",
      "outputs": [
        {
          "internalType": "uint256",
          "name": "",
          "type": "uint256"
        }
      ],
      "stateMutability": "view",
      "type": "function"
    },
    {
      "inputs": [
        {
          "internalType": "address",
          "name": "spender",
          "type": "address"
        },
        {
          "internalType": "uint256",
          "name": "value",
          "type": "uint256"
        }
      ],
      "name": "approve",
      "outputs": [
        {
          "internalType": "bool",
          "name": "",
          "type": "bool"
        }
      ],
      "stateMutability": "nonpayable",
      "type": "function"
    },
    {
      "inputs": [
        {
          "internalType": "address",
          "name": "account",
          "type": "address"
        }
      ],
      "name": "balanceOf",
      "outputs": [
        {
          "internalType": "uint256",
          "name": "",
          "type": "uint256"
        }
      ],
      "stateMutability": "view",
      "type": "function"
    },
    {
      "inputs": [
        {
          "internalType": "uint256",
          "name": "value",
          "type": "uint256"
        }
      ],
      "name": "burn",
      "outputs": [],
      "stateMutability": "nonpayable",
      "type": "function"
    },
    {
      "inputs": [
        {
          "internalType": "address",
          "name": "account",
          "type": "address"
        },
        {
          "internalType": "uint256",
          "name": "value",
          "type": "uint256"
        }
      ],
      "name": "burnFrom",
      "outputs": [],
      "stateMutability": "nonpayable",
      "type": "function"
    },
    {
      "inputs": [],
      "name": "cold",
      "outputs": [
        {
          "internalType": "address",
          "name": "",
          "type": "address"
        }
      ],
      "stateMutability": "view",
      "type": "function"
    },
    {
      "inputs": [],
      "name": "decimals",
      "outputs": [
        {
          "internalType": "uint8",
          "name": "",
          "type": "uint8"
        }
      ],
      "stateMutability": "view",
      "type": "function"
    },
    {
      "inputs": [],
      "name": "eip712Domain",
      "outputs": [
        {
          "internalType": "bytes1",
          "name": "fields",
          "type": "bytes1"
        },
        {
          "internalType": "string",
          "name": "name",
          "type": "string"
        },
        {
          "internalType": "string",
          "name": "version",
          "type": "string"
        },
        {
          "internalType": "uint256",
          "name": "chainId",
          "type": "uint256"
        },
        {
          "internalType": "address",
          "name": "verifyingContract",
          "type": "address"
        },
        {
          "internalType": "bytes32",
          "name": "salt",
          "type": "bytes32"
        },
        {
          "internalType": "uint256[]",
          "name": "extensions",
          "type": "uint256[]"
        }
      ],
      "stateMutability": "view",
      "type": "function"
    },
    {
      "inputs": [
        {
          "internalType": "bytes32",
          "name": "role",
          "type": "bytes32"
        }
      ],
      "name": "getRoleAdmin",
      "outputs": [
        {
          "internalType": "bytes32",
          "name": "",
          "type": "bytes32"
        }
      ],
      "stateMutability": "view",
      "type": "function"
    },
    {
      "inputs": [
        {
          "internalType": "bytes32",
          "name": "role",
          "type": "bytes32"
        },
        {
          "internalType": "address",
          "name": "account",
          "type": "address"
        }
      ],
      "name": "grantRole",
      "outputs": [],
      "stateMutability": "nonpayable",
      "type": "function"
    },
    {
      "inputs": [
        {
          "internalType": "bytes32",
          "name": "role",
          "type": "bytes32"
        },
        {
          "internalType": "address",
          "name": "account",
          "type": "address"
        }
      ],
      "name": "hasRole",
      "outputs": [
        {
          "internalType": "bool",
          "name": "",
          "type": "bool"
        }
      ],
      "stateMutability": "view",
      "type": "function"
    },
    {
      "inputs": [],
      "name": "hot",
      "outputs": [
        {
          "internalType": "address",
          "name": "",
          "type": "address"
        }
      ],
      "stateMutability": "view",
      "type": "function"
    },
    {
      "inputs": [
        {
          "internalType": "address",
          "name": "_treasury",
          "type": "address"
        },
        {
          "internalType": "address",
          "name": "_cold",
          "type": "address"
        },
        {
          "internalType": "address",
          "name": "_hot",
          "type": "address"
        },
        {
          "internalType": "address",
          "name": "_relayer",
          "type": "address"
        },
        {
          "internalType": "uint256",
          "name": "_totalSupply",
          "type": "uint256"
        }
      ],
      "name": "initialize",
      "outputs": [],
      "stateMutability": "nonpayable",
      "type": "function"
    },
    {
      "inputs": [],
      "name": "lockDuration",
      "outputs": [
        {
          "internalType": "uint64",
          "name": "",
          "type": "uint64"
        }
      ],
      "stateMutability": "view",
      "type": "function"
    },
    {
      "inputs": [
        {
          "internalType": "address",
          "name": "user",
          "type": "address"
        }
      ],
      "name": "lockedAmount",
      "outputs": [
        {
          "internalType": "uint256",
          "name": "total",
          "type": "uint256"
        }
      ],
      "stateMutability": "view",
      "type": "function"
    },
    {
      "inputs": [
        {
          "internalType": "address",
          "name": "user",
          "type": "address"
        }
      ],
      "name": "locksOf",
      "outputs": [
        {
          "components": [
            {
              "internalType": "uint128",
              "name": "amount",
              "type": "uint128"
            },
            {
              "internalType": "uint64",
              "name": "release",
              "type": "uint64"
            }
          ],
          "internalType": "struct YapTokenV4.Lock[]",
          "name": "",
          "type": "tuple[]"
        }
      ],
      "stateMutability": "view",
      "type": "function"
    },
    {
      "inputs": [],
      "name": "name",
      "outputs": [
        {
          "internalType": "string",
          "name": "",
          "type": "string"
        }
      ],
      "stateMutability": "view",
      "type": "function"
    },
    {
      "inputs": [
        {
          "internalType": "address",
          "name": "owner",
          "type": "address"
        }
      ],
      "name": "nonces",
      "outputs": [
        {
          "internalType": "uint256",
          "name": "",
          "type": "uint256"
        }
      ],
      "stateMutability": "view",
      "type": "function"
    },
    {
      "inputs": [
        {
          "internalType": "address",
          "name": "owner",
          "type": "address"
        },
        {
          "internalType": "address",
          "name": "spender",
          "type": "address"
        },
        {
          "internalType": "uint256",
          "name": "value",
          "type": "uint256"
        },
        {
          "internalType": "uint256",
          "name": "deadline",
          "type": "uint256"
        },
        {
          "internalType": "uint8",
          "name": "v",
          "type": "uint8"
        },
        {
          "internalType": "bytes32",
          "name": "r",
          "type": "bytes32"
        },
        {
          "internalType": "bytes32",
          "name": "s",
          "type": "bytes32"
        }
      ],
      "name": "permit",
      "outputs": [],
      "stateMutability": "nonpayable",
      "type": "function"
    },
    {
      "inputs": [
        {
          "internalType": "address",
          "name": "owner",
          "type": "address"
        },
        {
          "internalType": "uint256",
          "name": "value",
          "type": "uint256"
        },
        {
          "internalType": "uint256",
          "name": "deadline",
          "type": "uint256"
        },
        {
          "internalType": "uint8",
          "name": "v",
          "type": "uint8"
        },
        {
          "internalType": "bytes32",
          "name": "r",
          "type": "bytes32"
        },
        {
          "internalType": "bytes32",
          "name": "s",
          "type": "bytes32"
        }
      ],
      "name": "permitAndSpend",
      "outputs": [],
      "stateMutability": "nonpayable",
      "type": "function"
    },
    {
      "inputs": [],
      "name": "proxiableUUID",
      "outputs": [
        {
          "internalType": "bytes32",
          "name": "",
          "type": "bytes32"
        }
      ],
      "stateMutability": "view",
      "type": "function"
    },
    {
      "inputs": [],
      "name": "relayer",
      "outputs": [
        {
          "internalType": "address",
          "name": "",
          "type": "address"
        }
      ],
      "stateMutability": "view",
      "type": "function"
    },
    {
      "inputs": [
        {
          "internalType": "bytes32",
          "name": "role",
          "type": "bytes32"
        },
        {
          "internalType": "address",
          "name": "callerConfirmation",
          "type": "address"
        }
      ],
      "name": "renounceRole",
      "outputs": [],
      "stateMutability": "nonpayable",
      "type": "function"
    },
    {
      "inputs": [
        {
          "internalType": "bytes32",
          "name": "role",
          "type": "bytes32"
        },
        {
          "internalType": "address",
          "name": "account",
          "type": "address"
        }
      ],
      "name": "revokeRole",
      "outputs": [],
      "stateMutability": "nonpayable",
      "type": "function"
    },
    {
      "inputs": [
        {
          "internalType": "address",
          "name": "_hot",
          "type": "address"
        }
      ],
      "name": "setHotWallet",
      "outputs": [],
      "stateMutability": "nonpayable",
      "type": "function"
    },
    {
      "inputs": [
        {
          "internalType": "uint64",
          "name": "newDuration",
          "type": "uint64"
        }
      ],
      "name": "setLockDuration",
      "outputs": [],
      "stateMutability": "nonpayable",
      "type": "function"
    },
    {
      "inputs": [
        {
          "internalType": "address",
          "name": "_relayer",
          "type": "address"
        }
      ],
      "name": "setRelayer",
      "outputs": [],
      "stateMutability": "nonpayable",
      "type": "function"
    },
    {
      "inputs": [
        {
          "internalType": "address",
          "name": "_treasury",
          "type": "address"
        }
      ],
      "name": "setTreasury",
      "outputs": [],
      "stateMutability": "nonpayable",
      "type": "function"
    },
    {
      "inputs": [
        {
          "internalType": "address",
          "name": "owner",
          "type": "address"
        },
        {
          "internalType": "uint256",
          "name": "amount",
          "type": "uint256"
        }
      ],
      "name": "spendFrom",
      "outputs": [],
      "stateMutability": "nonpayable",
      "type": "function"
    },
    {
      "inputs": [
        {
          "internalType": "uint256",
          "name": "amount",
          "type": "uint256"
        }
      ],
      "name": "spendToken",
      "outputs": [],
      "stateMutability": "nonpayable",
      "type": "function"
    },
    {
      "inputs": [
        {
          "internalType": "bytes4",
          "name": "interfaceId",
          "type": "bytes4"
        }
      ],
      "name": "supportsInterface",
      "outputs": [
        {
          "internalType": "bool",
          "name": "",
          "type": "bool"
        }
      ],
      "stateMutability": "view",
      "type": "function"
    },
    {
      "inputs": [],
      "name": "symbol",
      "outputs": [
        {
          "internalType": "string",
          "name": "",
          "type": "string"
        }
      ],
      "stateMutability": "view",
      "type": "function"
    },
    {
      "inputs": [],
      "name": "totalSupply",
      "outputs": [
        {
          "internalType": "uint256",
          "name": "",
          "type": "uint256"
        }
      ],
      "stateMutability": "view",
      "type": "function"
    },
    {
      "inputs": [
        {
          "internalType": "address",
          "name": "to",
          "type": "address"
        },
        {
          "internalType": "uint256",
          "name": "value",
          "type": "uint256"
        }
      ],
      "name": "transfer",
      "outputs": [
        {
          "internalType": "bool",
          "name": "",
          "type": "bool"
        }
      ],
      "stateMutability": "nonpayable",
      "type": "function"
    },
    {
      "inputs": [
        {
          "internalType": "address",
          "name": "from",
          "type": "address"
        },
        {
          "internalType": "address",
          "name": "to",
          "type": "address"
        },
        {
          "internalType": "uint256",
          "name": "value",
          "type": "uint256"
        }
      ],
      "name": "transferFrom",
      "outputs": [
        {
          "internalType": "bool",
          "name": "",
          "type": "bool"
        }
      ],
      "stateMutability": "nonpayable",
      "type": "function"
    },
    {
      "inputs": [],
      "name": "treasury",
      "outputs": [
        {
          "internalType": "address",
          "name": "",
          "type": "address"
        }
      ],
      "stateMutability": "view",
      "type": "function"
    },
    {
      "inputs": [
        {
          "internalType": "address",
          "name": "user",
          "type": "address"
        }
      ],
      "name": "unlockedBalanceOf",
      "outputs": [
        {
          "internalType": "uint256",
          "name": "",
          "type": "uint256"
        }
      ],
      "stateMutability": "view",
      "type": "function"
    },
    {
      "inputs": [
        {
          "internalType": "address",
          "name": "newImplementation",
          "type": "address"
        },
        {
          "internalType": "bytes",
          "name": "data",
          "type": "bytes"
        }
      ],
      "name": "upgradeToAndCall",
      "outputs": [],
      "stateMutability": "payable",
      "type": "function"
    }
  ],
  "bytecode": "0x60a0806040523460295730608052613bc5908161002f8239608051818181611bac0152611c7f0152f35b600080fdfe608080604052600436101561001357600080fd5b60003560e01c90816301ffc9a71461229e57508063045544431461227457806306a351a51461214957806306fdde0314612087578063095ea7b31461206157806318160ddd146120365780632020aa781461200d57806323b872dd14611f94578063248a9ca314611f765780632f2ff15d14611f45578063313ce56714611f295780633644e51514611f0e57806336568abe14611ec857806342966c6814611eab5780634f1ef28614611c0357806352d1902d14611b99578063578e9dc514611b7057806361d027b314611b475780636548e9bc146119ce5780636aade2881461198657806370a082311461193f57806372c16a241461191657806379cc6790146118e65780637eaa2d27146118165780637ecebe00146117be5780638406c0791461179557806384955c881461177257806384b0196e1461149157806391d148541461143757806395d89b411461133c5780639fb755d71461122d578063a153e70814611202578063a217fddf146111e6578063a218df5e1461111d578063a2d7422714611075578063a9059cbb14611044578063ad3cb1cc14610ff9578063c3f9ab5814610ee7578063d505accf14610e9f578063d547741f14610e67578063dd62ed3e14610e1e578063dde9c29714610df5578063f0f4426014610d43578063f7013ef61461024e5763f72c0d8b1461020e57600080fd5b346102495760003660031901126102495760206040517f189ab7a9244df0848122154315af71fe140f3db0fe014031783b0946b8c9d2e38152f35b600080fd5b346102495760a0366003190112610249576102676122f1565b61026f612307565b6044356001600160a01b0381169291838203610249576064356001600160a01b038116948582036102495760843591600080516020613b30833981519152549460ff8660401c1615956001600160401b03811680159081610d3b575b6001149081610d31575b159081610d28575b50610d175767ffffffffffffffff198116600117600080516020613b308339815191525586610cea575b506001600160a01b0387169661031e881515612791565b6001600160a01b038616988915610cbc5761033a851515612592565b61034581151561251e565b85159485610c8c576103556127ca565b9960409a8b51906103668d83612379565b6005825264165054158d60da1b60208301526103806133a4565b6103886133a4565b8051906001600160401b0382116109585781906103b36000805160206139f083398151915254612477565b601f8111610c0f575b50602090601f8311600114610b8d57600092610b82575b50508160011b916000199060031b1c1916176000805160206139f0833981519152555b8051906001600160401b038211610958578190610421600080516020613a5083398151915254612477565b601f8111610b05575b50602090601f8311600114610a8357600092610a78575b50508160011b916000199060031b1c191617600080516020613a50833981519152555b61046c6133a4565b6104746127ca565b61047c6133a4565b8b51906104898d83612379565b60018252603160f81b602083015261049f6133a4565b8051906001600160401b0382116109585781906104ca600080516020613a3083398151915254612477565b601f81116109fb575b50602090601f83116001146109795760009261096e575b50508160011b916000199060031b1c191617600080516020613a30833981519152555b8051906001600160401b03821161095857610536600080516020613a9083398151915254612477565b601f81116108e6575b50602090601f83116001146108545792826106799998969361064f969361065f9996600092610849575b50508160011b916000199060031b1c191617600080516020613a90833981519152555b60007fa16a46d94261c7517cc8ff89f61c0ce93598e3c849801011dee649a6a557d1005560007fa16a46d94261c7517cc8ff89f61c0ce93598e3c849801011dee649a6a557d101556105dc6133a4565b6105e46133a4565b6105ed33612a49565b506105f733612ae3565b506001600160601b0360a01b60005416176000558d6001600160601b0360a01b60015416176001556001600160601b0360a01b60025416176002556102a360a71b9063ffffffff60e01b6003541617176003556129c3565b50610659876129c3565b506129c3565b50610669816129c3565b50610673336129c3565b50612937565b5060009561069683600080516020613a70833981519152546125c6565b600080516020613a7083398151915255801580156108265783600080516020613a708339815191525403600080516020613a70833981519152555b81887fddf252ad1be2c89b69c2b068fc378daa952ba7f163c4a11628f55a4df523b3ef60208a51888152a315918261081d575b50816107e1575b50610774575b505061071b575080f35b60207fc7f505b2f371ae2175ee4913f4499e1f2633a7b5936321eed1cdaeb6115181d29168ff000000000000000019600080516020613b308339815191525416600080516020613b30833981519152555160018152a180f35b620151806107996001600160401b0360035460a01c166001600160401b0342166125c6565b04620151808102908082046201518014901517156107cd57906001600160401b036107c693921691613848565b8380610711565b634e487b7160e01b86526011600452602486fd5b9050600080516020613b108339815191528652600080516020613ad083398151915260205284862090865260205260ff8486205416158661070b565b15915087610704565b818852600080516020613a108339815191526020528688208481540190556106d1565b015190503880610569565b90601f19831691600080516020613a90833981519152600052816000209260005b8181106108ce57509361064f969361065f999693600193836106799e9d9b98106108b5575b505050811b01600080516020613a908339815191525561058c565b015160001960f88460031b161c1916905538808061089a565b92936020600181928786015181550195019301610875565b600080516020613a908339815191526000527f5f9ce34815f8e11431c7bb75a8e6886a91478f7ffc1dbb0a98dc240fddd76b75601f840160051c8101916020851061094e575b601f0160051c01905b818110610942575061053f565b60008155600101610935565b909150819061092c565b634e487b7160e01b600052604160045260246000fd5b015190508f806104ea565b600080516020613a3083398151915260009081528281209350601f198516905b8181106109e357509084600195949392106109ca575b505050811b01600080516020613a308339815191525561050d565b015160001960f88460031b161c191690558f80806109af565b92936020600181928786015181550195019301610999565b600080516020613a308339815191526000529091507f42ad5d3e1f2e6e70edcf6d991b8a3023d3fca8047a131592f9edb9fd9b89d57d601f840160051c81019160208510610a6e575b90601f859493920160051c01905b818110610a5f57506104d3565b60008155849350600101610a52565b9091508190610a44565b015190508e80610441565b600080516020613a5083398151915260009081528281209350601f198516905b818110610aed5750908460019594939210610ad4575b505050811b01600080516020613a5083398151915255610464565b015160001960f88460031b161c191690558e8080610ab9565b92936020600181928786015181550195019301610aa3565b600080516020613a508339815191526000529091507f46a2803e59a4de4e7a4c574b1243f25977ac4c77d5a1a4a609b5394cebb4a2aa601f840160051c81019160208510610b78575b90601f859493920160051c01905b818110610b69575061042a565b60008155849350600101610b5c565b9091508190610b4e565b015190508f806103d3565b6000805160206139f083398151915260009081528281209350601f198516905b818110610bf75750908460019594939210610bde575b505050811b016000805160206139f0833981519152556103f6565b015160001960f88460031b161c191690558f8080610bc3565b92936020600181928786015181550195019301610bad565b6000805160206139f08339815191526000529091507f2ae08a8e29253f69ac5d979a101956ab8f8d9d7ded63fa7a83b16fc47648eab0601f840160051c81019160208510610c82575b90601f859493920160051c01905b818110610c7357506103bc565b60008155849350600101610c66565b9091508190610c58565b60405162461bcd60e51b81526020600482015260086024820152670737570706c793d360c41b6044820152606490fd5b60405162461bcd60e51b81526020600482015260066024820152650636f6c643d360d41b6044820152606490fd5b68ffffffffffffffffff19166801000000000000000117600080516020613b308339815191525588610307565b63f92ee8a960e01b60005260046000fd5b9050158a6102dd565b303b1591506102d5565b8891506102cb565b3461024957602036600319011261024957610d5c6122f1565b610d646127f6565b6001600160a01b03811690610d7a821515612791565b600080546001600160a01b0319811684178255838252600080516020613b7083398151915260205260409091205490919060ff1615610de5575b506001600160a01b03167f4ab5be82436d353e61ca18726e984e561f5c1cc7c6d38b29d2553c790434705a600080a3005b610dee906129c3565b5082610db4565b34610249576000366003190112610249576002546040516001600160a01b039091168152602090f35b3461024957604036600319011261024957610e376122f1565b610e48610e42612307565b916123b5565b9060018060a01b03166000526020526020604060002054604051908152f35b3461024957604036600319011261024957610e9d600435610e86612307565b90610e98610e93826124fd565b612897565b612d62565b005b346102495760e036600319011261024957610eb86122f1565b610ec0612307565b6084359160ff8316830361024957610e9d9260c4359260a43592606435916044359161265a565b34610249576020366003190112610249576001600160a01b03610f086122f1565b16600052600460205260406000208054906001600160401b0382116109585760208260051b0191610f3c6040519384612379565b80835260208301809260005260206000206000915b838310610fbb5784866040519182916020830190602084525180915260408301919060005b818110610f84575050500390f35b825180516001600160801b031685526020908101516001600160401b03168186015286955060409094019390920191600101610f76565b600160208192604051610fcd8161235e565b6001600160401b0386546001600160801b038116835260801c1683820152815201920192019190610f51565b3461024957600036600319011261024957611040604080519061101c8183612379565b60058252640352e302e360dc1b60208301525191829160208352602083019061231d565b0390f35b346102495760403660031901126102495761106a6110606122f1565b6024359033612fdd565b602060405160018152f35b3461024957602036600319011261024957600435611091612849565b33600052600080516020613a1083398151915260205280604060002054106110e157806110cf6110c8610e9d9360011c809361241c565b9133612e02565b6000546001600160a01b031633612fdd565b60405162461bcd60e51b8152602060048201526014602482015273496e73756666696369656e742062616c616e636560601b6044820152606490fd5b34610249576020366003190112610249576004356001600160401b0381168082036102495761114a6127f6565b80156111b4577f487bfe13f749e0da0df560489dee58866793643455664190c885e8d12fcc656291604091600354916001600160401b0360a01b9060a01b166001600160401b0360a01b198316176003556001600160401b0383519260a01c1682526020820152a1005b60405162461bcd60e51b815260206004820152600a60248201526906475726174696f6e3d360b41b6044820152606490fd5b3461024957600036600319011261024957602060405160008152f35b346102495760203660031901126102495760206112256112206122f1565b6125d3565b604051908152f35b34610249576020366003190112610249576112466122f1565b61124e6127f6565b6001600160a01b03811690611264821515612592565b6002546001600160a01b03169081151580611332575b80611303575b6112f4575b600280546001600160a01b031916841790556000838152600080516020613b70833981519152602052604090205460ff16156112e4575b507f6e73ffa1a8f189f9779dbf1c167b351dcf9278e2d77b08f45e0244a6d2d2a2b7600080a3005b6112ed906129c3565b50826112bc565b6112fd82612ccc565b50611285565b506001600160a01b0382166000908152600080516020613b70833981519152602052604090205460ff16611280565b508282141561127a565b34610249576000366003190112610249576040516000600080516020613a508339815191525461136b81612477565b808452906001811690811561141357506001146113a7575b6110408361139381850382612379565b60405191829160208352602083019061231d565b600080516020613a5083398151915260009081527f46a2803e59a4de4e7a4c574b1243f25977ac4c77d5a1a4a609b5394cebb4a2aa939250905b8082106113f957509091508101602001611393611383565b9192600181602092548385880101520191019092916113e1565b60ff191660208086019190915291151560051b840190910191506113939050611383565b3461024957604036600319011261024957611450612307565b600435600052600080516020613ad083398151915260205260406000209060018060a01b0316600052602052602060ff604060002054166040519015158152f35b34610249576000366003190112610249577fa16a46d94261c7517cc8ff89f61c0ce93598e3c849801011dee649a6a557d100541580611749575b1561170c57604051600080516020613a30833981519152548160006114ef83612477565b80835292600181169081156116ed5750600114611680575b61151392500382612379565b604051600080516020613a908339815191525481600061153283612477565b808352926001811690811561166157506001146115f4575b61155d9192509261159694930382612379565b60206115a4604051926115708385612379565b600084526000368137604051958695600f60f81b875260e08588015260e087019061231d565b90858203604087015261231d565b466060850152306080850152600060a085015283810360c085015281808451928381520193019160005b8281106115dd57505050500390f35b8351855286955093810193928101926001016115ce565b50600080516020613a90833981519152600090815290917f5f9ce34815f8e11431c7bb75a8e6886a91478f7ffc1dbb0a98dc240fddd76b755b81831061164557505090602061155d9282010161154a565b602091935080600191548385880101520191019091839261162d565b6020925061155d94915060ff191682840152151560051b82010161154a565b50600080516020613a30833981519152600090815290917f42ad5d3e1f2e6e70edcf6d991b8a3023d3fca8047a131592f9edb9fd9b89d57d5b8183106116d157505090602061151392820101611507565b60209193508060019154838588010152019101909183926116b9565b6020925061151394915060ff191682840152151560051b820101611507565b60405162461bcd60e51b81526020600482015260156024820152741152540dcc4c8e88155b9a5b9a5d1a585b1a5e9959605a1b6044820152606490fd5b507fa16a46d94261c7517cc8ff89f61c0ce93598e3c849801011dee649a6a557d10154156114cb565b346102495760203660031901126102495760206112256117906122f1565b612556565b34610249576000366003190112610249576003546040516001600160a01b039091168152602090f35b34610249576020366003190112610249576117d76122f1565b60018060a01b03166000527f5ab42ced628888259c08ac98db1eb0cf702fc1501344311d8b100cd1bfe4bb006020526020604060002054604051908152f35b346102495760c03660031901126102495761182f6122f1565b6024359060643560ff81168103610249577f2dc09c83938e33989f9cd76e1f4acb6420bff17e191f7a30448a0e1461b814c991611883606092611870612849565b60a435906084359060443588338761265a565b61188b612849565b611896843383612f0c565b8360011c6118a4818661241c565b906118af8184612e02565b6000546118c79083906001600160a01b031685612fdd565b6040805196875260208701919091528501526001600160a01b031692a2005b3461024957604036600319011261024957610e9d6119026122f1565b60243590611911823383612f0c565b612e02565b34610249576000366003190112610249576020604051600080516020613af08339815191528152f35b34610249576020366003190112610249576001600160a01b036119606122f1565b16600052600080516020613a108339815191526020526020604060002054604051908152f35b346102495760403660031901126102495761199f6122f1565b7f2dc09c83938e33989f9cd76e1f4acb6420bff17e191f7a30448a0e1461b814c960606024359261188b612849565b34610249576020366003190112610249576119e76122f1565b6119ef6127f6565b6001600160a01b03811690611a0582151561251e565b6003546001600160a01b03169081151580611b3d575b611ac3575b600380546001600160a01b031916841790556000838152600080516020613b50833981519152602052604090205460ff1615611ab4575b6000838152600080516020613b70833981519152602052604090205460ff1615611aa4575b507f605ca4e43489fb38b91aa63dd9147cd3847957694b080b9285ec898b34269f0c600080a3005b611aad906129c3565b5082611a7c565b611abd81612937565b50611a57565b6001600160a01b0382166000908152600080516020613b50833981519152602052604090205460ff16611b2e575b6001600160a01b0382166000908152600080516020613b70833981519152602052604090205460ff1615611a2057611b2882612ccc565b50611a20565b611b3782612c36565b50611af1565b5082821415611a1b565b34610249576000366003190112610249576000546040516001600160a01b039091168152602090f35b34610249576000366003190112610249576001546040516001600160a01b039091168152602090f35b34610249576000366003190112610249577f00000000000000000000000000000000000000000000000000000000000000006001600160a01b03163003611bf2576020604051600080516020613ab08339815191528152f35b63703e46dd60e11b60005260046000fd5b604036600319011261024957611c176122f1565b602435906001600160401b038211610249573660238301121561024957816004013590611c438261239a565b91611c516040519384612379565b8083526020830193366024838301011161024957816000926024602093018737840101526001600160a01b037f000000000000000000000000000000000000000000000000000000000000000016308114908115611e88575b50611bf2573360009081527fab71e3f32666744d246edff3f96e4bdafee2e9867098cdd118a979a7464786a8602052604090205460ff1615611e4f576040516352d1902d60e01b81526001600160a01b0382169390602081600481885afa60009181611e1b575b50611d2b5784634c9c8ce360e01b60005260045260246000fd5b80600080516020613ab0833981519152869203611e075750823b15611df357600080516020613ab083398151915280546001600160a01b031916821790557fbc7cd75a20ee27fd9adebab32041f755214dbc6bffa90cc0225b39da2e5c2d3b600080a2825115611dd85760008091610e9d945190845af43d15611dd0573d91611db38361239a565b92611dc16040519485612379565b83523d6000602085013e61396e565b60609161396e565b50505034611de257005b63b398979f60e01b60005260046000fd5b634c9c8ce360e01b60005260045260246000fd5b632a87526960e21b60005260045260246000fd5b9091506020813d602011611e47575b81611e3760209383612379565b8101031261024957519086611d11565b3d9150611e2a565b63e2517d3f60e01b600052336004527f189ab7a9244df0848122154315af71fe140f3db0fe014031783b0946b8c9d2e360245260446000fd5b600080516020613ab0833981519152546001600160a01b03161415905084611caa565b3461024957602036600319011261024957610e9d60043533612e02565b3461024957604036600319011261024957611ee1612307565b336001600160a01b03821603611efd57610e9d90600435612d62565b63334bd91960e11b60005260046000fd5b34610249576000366003190112610249576020611225613220565b3461024957600036600319011261024957602060405160128152f35b3461024957604036600319011261024957610e9d600435611f64612307565b90611f71610e93826124fd565b612b9f565b346102495760203660031901126102495760206112256004356124fd565b346102495760603660031901126102495761106a611fb06122f1565b611fb8612307565b604435916001600160a01b038116151580611ffc575b611fe3575b611fde833383612f0c565b612fdd565b611ff783611ff083612556565b10156124b1565b611fd3565b5061200782336128e1565b15611fce565b34610249576000366003190112610249576020604051600080516020613b108339815191528152f35b34610249576000366003190112610249576020600080516020613a7083398151915254604051908152f35b346102495760403660031901126102495761106a61207d6122f1565b60243590336131bb565b346102495760003660031901126102495760405160006000805160206139f0833981519152546120b681612477565b808452906001811690811561141357506001146120dd576110408361139381850382612379565b6000805160206139f083398151915260009081527f2ae08a8e29253f69ac5d979a101956ab8f8d9d7ded63fa7a83b16fc47648eab0939250905b80821061212f57509091508101602001611393611383565b919260018160209254838588010152019101909291612117565b34610249576020366003190112610249576121626122f1565b61216a6127f6565b6001600160a01b0381166000908152600080516020613b70833981519152602052604090205460ff161561223d576001600160a01b03166000908152600460205260408120905b81548110156121dc57806121c7600192846123ee565b5080546001600160801b0319169055016121b1565b505b805480151590816121fe575b5015610e9d576121f981612429565b6121de565b6000198101915081116122275761221d6001600160801b0391836123ee565b50541615826121ea565b634e487b7160e01b600052601160045260246000fd5b60405162461bcd60e51b815260206004820152600f60248201526e1d5cd95c881b9bdd08195e195b5c1d608a1b6044820152606490fd5b346102495760003660031901126102495760206001600160401b0360035460a01c16604051908152f35b34610249576020366003190112610249576004359063ffffffff60e01b821680920361024957602091637965db0b60e01b81149081156122e0575b5015158152f35b6301ffc9a760e01b149050836122d9565b600435906001600160a01b038216820361024957565b602435906001600160a01b038216820361024957565b919082519283825260005b848110612349575050826000602080949584010152601f8019910116010190565b80602080928401015182828601015201612328565b604081019081106001600160401b0382111761095857604052565b90601f801991011681019081106001600160401b0382111761095857604052565b6001600160401b03811161095857601f01601f191660200190565b6001600160a01b031660009081527f52c63247e1f47db19d5ce0460030c497f067ca4cebf71ba98eeadabe20bace016020526040902090565b80548210156124065760005260206000200190600090565b634e487b7160e01b600052603260045260246000fd5b9190820391821161222757565b8054801561246157600019019061244082826123ee565b61244b576000905555565b634e487b7160e01b600052600060045260246000fd5b634e487b7160e01b600052603160045260246000fd5b90600182811c921680156124a7575b602083101461249157565b634e487b7160e01b600052602260045260246000fd5b91607f1691612486565b156124b857565b60405162461bcd60e51b815260206004820152601c60248201527f5941503a20616d6f756e74206578636565647320756e6c6f636b6564000000006044820152606490fd5b600052600080516020613ad083398151915260205260016040600020015490565b1561252557565b60405162461bcd60e51b8152602060048201526009602482015268072656c617965723d360bc1b6044820152606490fd5b6001600160a01b0381166000908152600080516020613a10833981519152602052604090205461258f91612589906125d3565b9061241c565b90565b1561259957565b60405162461bcd60e51b81526020600482015260056024820152640686f743d360dc1b6044820152606490fd5b9190820180921161222757565b6001600160a01b03166000908152600460205260408120805491929190426001600160401b0316845b8381106126095750505050565b816001600160401b0361261c83866123ee565b505460801c1611612630575b6001016125fc565b946126526001916001600160801b0361264989876123ee565b505416906125c6565b959050612628565b92969594919493909387421161277c576127459261273c92604260018060a01b038716809b816000527f5ab42ced628888259c08ac98db1eb0cf702fc1501344311d8b100cd1bfe4bb006020526040600020908154916001830190556040519160208301937f6e71edae12b1b97f4d1f60370fef10105fa2faae0126114a169c64845d6126c98552604084015260018060a01b038c1660608401528c608084015260a083015260c082015260c0815261271460e082612379565b51902061271f613220565b906040519161190160f01b83526002830152602282015220613287565b9092919261331c565b6001600160a01b031685810361276357506127619394506131bb565b565b85906325c0072360e11b60005260045260245260446000fd5b8763313c898160e11b60005260045260246000fd5b1561279857565b60405162461bcd60e51b815260206004820152600a602482015269074726561737572793d360b41b6044820152606490fd5b604051906127d9604083612379565b600e82526d16585c151bdad95b95195cdd158d60921b6020830152565b3360009081527fb7db2dd08fcb62d0c9e08c51941cae53c267786a0b75803fb7960902fc8ef97d602052604090205460ff161561282f57565b63e2517d3f60e01b60005233600452600060245260446000fd5b336000908152600080516020613b50833981519152602052604090205460ff161561287057565b63e2517d3f60e01b60005233600452600080516020613af083398151915260245260446000fd5b6000818152600080516020613ad08339815191526020908152604080832033845290915290205460ff16156128c95750565b63e2517d3f60e01b6000523360045260245260446000fd5b6001600160a01b03166000908152600080516020613b50833981519152602052604090205460ff169081612913575090565b6000546001600160a01b039182169116811491508115612931575090565b90501590565b6001600160a01b0381166000908152600080516020613b50833981519152602052604090205460ff166129bd576001600160a01b03166000818152600080516020613b5083398151915260205260408120805460ff19166001179055339190600080516020613af0833981519152906000805160206139d08339815191529080a4600190565b50600090565b6001600160a01b0381166000908152600080516020613b70833981519152602052604090205460ff166129bd576001600160a01b03166000818152600080516020613b7083398151915260205260408120805460ff19166001179055339190600080516020613b10833981519152906000805160206139d08339815191529080a4600190565b6001600160a01b03811660009081527fb7db2dd08fcb62d0c9e08c51941cae53c267786a0b75803fb7960902fc8ef97d602052604090205460ff166129bd576001600160a01b031660008181527fb7db2dd08fcb62d0c9e08c51941cae53c267786a0b75803fb7960902fc8ef97d60205260408120805460ff191660011790553391906000805160206139d08339815191528180a4600190565b6001600160a01b03811660009081527fab71e3f32666744d246edff3f96e4bdafee2e9867098cdd118a979a7464786a8602052604090205460ff166129bd576001600160a01b031660008181527fab71e3f32666744d246edff3f96e4bdafee2e9867098cdd118a979a7464786a860205260408120805460ff191660011790553391907f189ab7a9244df0848122154315af71fe140f3db0fe014031783b0946b8c9d2e3906000805160206139d08339815191529080a4600190565b6000818152600080516020613ad0833981519152602090815260408083206001600160a01b038616845290915290205460ff16612c2f576000818152600080516020613ad0833981519152602090815260408083206001600160a01b0395909516808452949091528120805460ff19166001179055339291906000805160206139d08339815191529080a4600190565b5050600090565b6001600160a01b0381166000908152600080516020613b50833981519152602052604090205460ff16156129bd576001600160a01b03166000818152600080516020613b5083398151915260205260408120805460ff19169055339190600080516020613af0833981519152907ff6391f5c32d9c69d2a47ea670b442974b53935d1edc7fd64eb21e047a839171b9080a4600190565b6001600160a01b0381166000908152600080516020613b70833981519152602052604090205460ff16156129bd576001600160a01b03166000818152600080516020613b7083398151915260205260408120805460ff19169055339190600080516020613b10833981519152907ff6391f5c32d9c69d2a47ea670b442974b53935d1edc7fd64eb21e047a839171b9080a4600190565b6000818152600080516020613ad0833981519152602090815260408083206001600160a01b038616845290915290205460ff1615612c2f576000818152600080516020613ad0833981519152602090815260408083206001600160a01b0395909516808452949091528120805460ff19169055339291907ff6391f5c32d9c69d2a47ea670b442974b53935d1edc7fd64eb21e047a839171b9080a4600190565b6001600160a01b038116908115612ef65782612e1f6000336128e1565b15612ee55780612ed5575b50505b600091818352600080516020613a108339815191526020526040832054818110612ebc57817fddf252ad1be2c89b69c2b068fc378daa952ba7f163c4a11628f55a4df523b3ef92602092858752600080516020613a10833981519152845203604086205580600080516020613a708339815191525403600080516020613a7083398151915255604051908152a3565b6064939263391434e360e21b8452600452602452604452fd5b612ede91613620565b3882612e2a565b611ff0612ef192612556565b612e2d565b634b637e8f60e11b600052600060045260246000fd5b9190612f17836123b5565b60018060a01b038216600052602052604060002054926000198410612f3d575b50505050565b828410612fb8576001600160a01b03811615612fa2576001600160a01b03821615612f8c57612f6b906123b5565b9060018060a01b031660005260205260406000209103905538808080612f37565b634a1406b160e11b600052600060045260246000fd5b63e602df0560e01b600052600060045260246000fd5b508290637dc7a0d960e11b60005260018060a01b031660045260245260445260646000fd5b6001600160a01b0381169392908415612ef6576001600160a01b0383169081156131a5578261300c85336128e1565b156131945780613184575b50505b600094808652600080516020613a1083398151915260205260408620548381106131695790838392828952600080516020613a10833981519152602052036040882055818752600080516020613a10833981519152602052604087208481540190557fddf252ad1be2c89b69c2b068fc378daa952ba7f163c4a11628f55a4df523b3ef6020604051868152a3811515908161312b575b506130bc575b50509050565b620151806130e16001600160401b0360035460a01c166001600160401b0342166125c6565b04936201518085029480860462015180149015171561311757506001600160401b0361310f93941691613848565b8038806130b6565b634e487b7160e01b81526011600452602490fd5b9050600080516020613b108339815191528552600080516020613ad08339815191526020526040852090855260205260ff60408520541615386130b0565b83879160649363391434e360e21b8452600452602452604452fd5b61318d91613620565b3882613017565b611ff06131a092612556565b61301a565b63ec442f0560e01b600052600060045260246000fd5b916001600160a01b038316918215612fa2576001600160a01b0316928315612f8c577f8c5be1e5ebec7d5bd14f71427d1e84f3dd0314c0f7b2291e5b200ac8c7c3b9259161320a6020926123b5565b85600052825280604060002055604051908152a3565b6132286133d2565b613230613504565b6040519060208201927f8b73c3c69bb8fe3d512ecc4cf759cc79239f7b179b0ffacaa9a75d522b39400f8452604083015260608201524660808201523060a082015260a0815261328160c082612379565b51902090565b91907f7fffffffffffffffffffffffffffffff5d576e7357a4501ddfe92f46681b20a08411613310579160209360809260ff60009560405194855216868401526040830152606082015282805260015afa15613304576000516001600160a01b038116156132f85790600090600090565b50600090600190600090565b6040513d6000823e3d90fd5b50505060009160039190565b919091600481101561338e578061333257509050565b60006001820361334d5763f645eedf60e01b60005260046000fd5b506002810361336b578263fce698f760e01b60005260045260246000fd5b909160036000921461337b575050565b6335e2f38360e21b825260045260249150fd5b634e487b7160e01b600052602160045260246000fd5b60ff600080516020613b308339815191525460401c16156133c157565b631afcd79f60e31b60005260046000fd5b604051600080516020613a3083398151915254906000816133f284612477565b9182825260208201946001811690816000146134e8575060011461347b575b61341d92500382612379565b51908115613429572090565b50507fa16a46d94261c7517cc8ff89f61c0ce93598e3c849801011dee649a6a557d1005480156134565790565b507fc5d2460186f7233c927e7db2dcc703c0e500b653ca82273b7bfad8045d85a47090565b50600080516020613a30833981519152600090815290917f42ad5d3e1f2e6e70edcf6d991b8a3023d3fca8047a131592f9edb9fd9b89d57d5b8183106134cc57505090602061341d92820101613411565b60209193508060019154838588010152019101909183926134b4565b60ff191686525061341d92151560051b82016020019050613411565b604051600080516020613a90833981519152549060008161352484612477565b9182825260208201946001811690816000146135f55750600114613588575b61354f92500382612379565b5190811561355b572090565b50507fa16a46d94261c7517cc8ff89f61c0ce93598e3c849801011dee649a6a557d1015480156134565790565b50600080516020613a90833981519152600090815290917f5f9ce34815f8e11431c7bb75a8e6886a91478f7ffc1dbb0a98dc240fddd76b755b8183106135d957505090602061354f92820101613543565b60209193508060019154838588010152019101909183926135c1565b60ff191686525061354f92151560051b82016020019050613543565b60001981146122275760010190565b9190918215613843576001600160a01b0316600090815260046020526040812090426001600160401b0316905b825481108061383a575b1561372957816001600160401b0361366f83866123ee565b505460801c1611613689575b61368490613611565b61364d565b936001600160801b0361369c86856123ee565b50541690811561371e578082116136dc57613684916136ba9161241c565b946136c581856123ee565b5080546001600160801b03191690555b905061367b565b6136ee906001600160801b039261241c565b166001600160801b0361370186856123ee565b5091166001600160801b03198254161790556136846000946136d5565b946136849150613611565b50506000925b8154841080613831575b156137e0576001600160801b0361375085846123ee565b5054169081156137d5578082116137935761378d9161376e9161241c565b9361377981846123ee565b5080546001600160801b0319169055613611565b9261372f565b6137a5906001600160801b039261241c565b166001600160801b036137b885846123ee565b5091166001600160801b031982541617905561378d600093613611565b9361378d9150613611565b509091505b80548015159081613808575b50156138055761380081612429565b6137e5565b50565b600019810191508111612227576138276001600160801b0391836123ee565b50541615386137f1565b50801515613739565b50841515613657565b509050565b6001600160a01b03166000908152600460205260408120905b81548110156138e4576001600160401b0361387c82846123ee565b505460801c166001600160401b0385161461389957600101613861565b6001600160801b039293506138ad916123ee565b5091166001600160801b03825416016001600160801b038111612227576001600160801b03166001600160801b0319825416179055565b5060405192916001600160801b03906138fc8561235e565b1683526001600160401b03602084019216825280546801000000000000000081101561095857613931916001820181556123ee565b92909261244b5751825491516001600160c01b03199092166001600160801b03919091161760809190911b67ffffffffffffffff60801b16179055565b90613994575080511561398357602081519101fd5b63d6bda27560e01b60005260046000fd5b815115806139c6575b6139a5575090565b639996b31560e01b60009081526001600160a01b0391909116600452602490fd5b50803b1561399d56fe2f8788117e7eff1d82e926ec794901d17c78024a50270940304540a733656f0d52c63247e1f47db19d5ce0460030c497f067ca4cebf71ba98eeadabe20bace0352c63247e1f47db19d5ce0460030c497f067ca4cebf71ba98eeadabe20bace00a16a46d94261c7517cc8ff89f61c0ce93598e3c849801011dee649a6a557d10252c63247e1f47db19d5ce0460030c497f067ca4cebf71ba98eeadabe20bace0452c63247e1f47db19d5ce0460030c497f067ca4cebf71ba98eeadabe20bace02a16a46d94261c7517cc8ff89f61c0ce93598e3c849801011dee649a6a557d103360894a13ba1a3210667c828492db98dca3e2076cc3735a920a3ca505d382bbc02dd7bc7dec4dceedda775e58dd541e08a116c6c53815c0bd028192f7b6268007434c6f201a551bfd17336985361933e0c4935b520dac8a49d937b325f7d5c0a761dabb6d6aa91e6fd79122b2d1c9fbdea97a6277ff08b341618d298dca32febf0c57e16840df040f15088dc2f81fe391c3923bec73e23a9662efc9c229c6a006fc4510a01a6f70b98fc8379fc93f3241a733c49efc26dc36ce981343be824f47b3eff0c0210b375c2c8ef41e137461eaa26a0b451dc1e6944e95deac3da8572a264697066735822122027fde61ca0024de3902dd8737e22150ae9362b8d5a68b19031d99a20ed10f44d64736f6c634300081c0033",
  "linkReferences": {},
  "deployedLinkReferences": {}
}