{
  "_format": "hh-sol-artifact-1",
  "contractName": "YapToken",
  "sourceName": "contracts/YapToken.sol",
  "abi": [
    {
      "inputs": [],
      "name": "AccessControlBadConfirmation",
      "type": "error"
    },
    {
      "inputs": [
        {
          "internalType": "address",
          "name": "account",
          "type": "address"
        },
        {
          "internalType": "bytes32",
          "name": "neededRole",
          "type": "bytes32"
        }
      ],
      "name": "AccessControlUnauthorizedAccount",
      "type": "error"
    },
    {
      "inputs": [
        {
          "internalType": "address",
          "name": "target",
          "type": "address"
        }
      ],
      "name": "AddressEmptyCode",
      "type": "error"
    },
    {
      "inputs": [],
      "name": "ECDSAInvalidSignature",
      "type": "error"
    },
    {
      "inputs": [
        {
          "internalType": "uint256",
          "name": "length",
          "type": "uint256"
        }
      ],
      "name": "ECDSAInvalidSignatureLength",
      "type": "error"
    },
    {
      "inputs": [
        {
          "internalType": "bytes32",
          "name": "s",
          "type": "bytes32"
        }
      ],
      "name": "ECDSAInvalidSignatureS",
      "type": "error"
    },
    {
      "inputs": [
        {
          "internalType": "address",
          "name": "implementation",
          "type": "address"
        }
      ],
      "name": "ERC1967InvalidImplementation",
      "type": "error"
    },
    {
      "inputs": [],
      "name": "ERC1967NonPayable",
      "type": "error"
    },
    {
      "inputs": [
        {
          "internalType": "address",
          "name": "spender",
          "type": "address"
        },
        {
          "internalType": "uint256",
          "name": "allowance",
          "type": "uint256"
        },
        {
          "internalType": "uint256",
          "name": "needed",
          "type": "uint256"
        }
      ],
      "name": "ERC20InsufficientAllowance",
      "type": "error"
    },
    {
      "inputs": [
        {
          "internalType": "address",
          "name": "sender",
          "type": "address"
        },
        {
          "internalType": "uint256",
          "name": "balance",
          "type": "uint256"
        },
        {
          "internalType": "uint256",
          "name": "needed",
          "type": "uint256"
        }
      ],
      "name": "ERC20InsufficientBalance",
      "type": "error"
    },
    {
      "inputs": [
        {
          "internalType": "address",
          "name": "approver",
          "type": "address"
        }
      ],
      "name": "ERC20InvalidApprover",
      "type": "error"
    },
    {
      "inputs": [
        {
          "internalType": "address",
          "name": "receiver",
          "type": "address"
        }
      ],
      "name": "ERC20InvalidReceiver",
      "type": "error"
    },
    {
      "inputs": [
        {
          "internalType": "address",
          "name": "sender",
          "type": "address"
        }
      ],
      "name": "ERC20InvalidSender",
      "type": "error"
    },
    {
      "inputs": [
        {
          "internalType": "address",
          "name": "spender",
          "type": "address"
        }
      ],
      "name": "ERC20InvalidSpender",
      "type": "error"
    },
    {
      "inputs": [
        {
          "internalType": "uint256",
          "name": "deadline",
          "type": "uint256"
        }
      ],
      "name": "ERC2612ExpiredSignature",
      "type": "error"
    },
    {
      "inputs": [
        {
          "internalType": "address",
          "name": "signer",
          "type": "address"
        },
        {
          "internalType": "address",
          "name": "owner",
          "type": "address"
        }
      ],
      "name": "ERC2612InvalidSigner",
      "type": "error"
    },
    {
      "inputs": [],
      "name": "FailedCall",
      "type": "error"
    },
    {
      "inputs": [
        {
          "internalType": "address",
          "name": "account",
          "type": "address"
        },
        {
          "internalType": "uint256",
          "name": "currentNonce",
          "type": "uint256"
        }
      ],
      "name": "InvalidAccountNonce",
      "type": "error"
    },
    {
      "inputs": [],
      "name": "InvalidInitialization",
      "type": "error"
    },
    {
      "inputs": [],
      "name": "NotInitializing",
      "type": "error"
    },
    {
      "inputs": [],
      "name": "UUPSUnauthorizedCallContext",
      "type": "error"
    },
    {
      "inputs": [
        {
          "internalType": "bytes32",
          "name": "slot",
          "type": "bytes32"
        }
      ],
      "name": "UUPSUnsupportedProxiableUUID",
      "type": "error"
    },
    {
      "anonymous": false,
      "inputs": [
        {
          "indexed": true,
          "internalType": "address",
          "name": "owner",
          "type": "address"
        },
        {
          "indexed": true,
          "internalType": "address",
          "name": "spender",
          "type": "address"
        },
        {
          "indexed": false,
          "internalType": "uint256",
          "name": "value",
          "type": "uint256"
        }
      ],
      "name": "Approval",
      "type": "event"
    },
    {
      "anonymous": false,
      "inputs": [],
      "name": "EIP712DomainChanged",
      "type": "event"
    },
    {
      "anonymous": false,
      "inputs": [
        {
          "indexed": false,
          "internalType": "uint64",
          "name": "version",
          "type": "uint64"
        }
      ],
      "name": "Initialized",
      "type": "event"
    },
    {
      "anonymous": false,
      "inputs": [
        {
          "indexed": true,
          "internalType": "bytes32",
          "name": "role",
          "type": "bytes32"
        },
        {
          "indexed": true,
          "internalType": "bytes32",
          "name": "previousAdminRole",
          "type": "bytes32"
        },
        {
          "indexed": true,
          "internalType": "bytes32",
          "name": "newAdminRole",
          "type": "bytes32"
        }
      ],
      "name": "RoleAdminChanged",
      "type": "event"
    },
    {
      "anonymous": false,
      "inputs": [
        {
          "indexed": true,
          "internalType": "bytes32",
          "name": "role",
          "type": "bytes32"
        },
        {
          "indexed": true,
          "internalType": "address",
          "name": "account",
          "type": "address"
        },
        {
          "indexed": true,
          "internalType": "address",
          "name": "sender",
          "type": "address"
        }
      ],
      "name": "RoleGranted",
      "type": "event"
    },
    {
      "anonymous": false,
      "inputs": [
        {
          "indexed": true,
          "internalType": "bytes32",
          "name": "role",
          "type": "bytes32"
        },
        {
          "indexed": true,
          "internalType": "address",
          "name": "account",
          "type": "address"
        },
        {
          "indexed": true,
          "internalType": "address",
          "name": "sender",
          "type": "address"
        }
      ],
      "name": "RoleRevoked",
      "type": "event"
    },
    {
      "anonymous": false,
      "inputs": [
        {
          "indexed": true,
          "internalType": "address",
          "name": "from",
          "type": "address"
        },
        {
          "indexed": true,
          "internalType": "address",
          "name": "to",
          "type": "address"
        },
        {
          "indexed": false,
          "internalType": "uint256",
          "name": "value",
          "type": "uint256"
        }
      ],
      "name": "Transfer",
      "type": "event"
    },
    {
      "anonymous": false,
      "inputs": [
        {
          "indexed": true,
          "internalType": "address",
          "name": "implementation",
          "type": "address"
        }
      ],
      "name": "Upgraded",
      "type": "event"
    },
    {
      "inputs": [],
      "name": "DEFAULT_ADMIN_ROLE",
      "outputs": [
        {
          "internalType": "bytes32",
          "name": "",
          "type": "bytes32"
        }
      ],
      "stateMutability": "view",
      "type": "function"
    },
    {
      "inputs": [],
      "name": "DOMAIN_SEPARATOR",
      "outputs": [
        {
          "internalType": "bytes32",
          "name": "",
          "type": "bytes32"
        }
      ],
      "stateMutability": "view",
      "type": "function"
    },
    {
      "inputs": [],
      "name": "SPENDER_ROLE",
      "outputs": [
        {
          "internalType": "bytes32",
          "name": "",
          "type": "bytes32"
        }
      ],
      "stateMutability": "view",
      "type": "function"
    },
    {
      "inputs": [],
      "name": "UPGRADER_ROLE",
      "outputs": [
        {
          "internalType": "bytes32",
          "name": "",
          "type": "bytes32"
        }
      ],
      "stateMutability": "view",
      "type": "function"
    },
    {
      "inputs": [],
      "name": "UPGRADE_INTERFACE_VERSION",
      "outputs": [
        {
          "internalType": "string",
          "name": "",
          "type": "string"
        }
      ],
      "stateMutability": "view",
      "type": "function"
    },
    {
      "inputs": [
        {
          "internalType": "address",
          "name": "owner",
          "type": "address"
        },
        {
          "internalType": "address",
          "name": "spender",
          "type": "address"
        }
      ],
      "name": "allowance",
      "outputs": [
        {
          "internalType": "uint256",
          "name": "",
          "type": "uint256"
        }
      ],
      "stateMutability": "view",
      "type": "function"
    },
    {
      "inputs": [
        {
          "internalType": "address",
          "name": "spender",
          "type": "address"
        },
        {
          "internalType": "uint256",
          "name": "value",
          "type": "uint256"
        }
      ],
      "name": "approve",
      "outputs": [
        {
          "internalType": "bool",
          "name": "",
          "type": "bool"
        }
      ],
      "stateMutability": "nonpayable",
      "type": "function"
    },
    {
      "inputs": [
        {
          "internalType": "address",
          "name": "account",
          "type": "address"
        }
      ],
      "name": "balanceOf",
      "outputs": [
        {
          "internalType": "uint256",
          "name": "",
          "type": "uint256"
        }
      ],
      "stateMutability": "view",
      "type": "function"
    },
    {
      "inputs": [
        {
          "internalType": "uint256",
          "name": "value",
          "type": "uint256"
        }
      ],
      "name": "burn",
      "outputs": [],
      "stateMutability": "nonpayable",
      "type": "function"
    },
    {
      "inputs": [
        {
          "internalType": "address",
          "name": "account",
          "type": "address"
        },
        {
          "internalType": "uint256",
          "name": "value",
          "type": "uint256"
        }
      ],
      "name": "burnFrom",
      "outputs": [],
      "stateMutability": "nonpayable",
      "type": "function"
    },
    {
      "inputs": [],
      "name": "decimals",
      "outputs": [
        {
          "internalType": "uint8",
          "name": "",
          "type": "uint8"
        }
      ],
      "stateMutability": "view",
      "type": "function"
    },
    {
      "inputs": [],
      "name": "eip712Domain",
      "outputs": [
        {
          "internalType": "bytes1",
          "name": "fields",
          "type": "bytes1"
        },
        {
          "internalType": "string",
          "name": "name",
          "type": "string"
        },
        {
          "internalType": "string",
          "name": "version",
          "type": "string"
        },
        {
          "internalType": "uint256",
          "name": "chainId",
          "type": "uint256"
        },
        {
          "internalType": "address",
          "name": "verifyingContract",
          "type": "address"
        },
        {
          "internalType": "bytes32",
          "name": "salt",
          "type": "bytes32"
        },
        {
          "internalType": "uint256[]",
          "name": "extensions",
          "type": "uint256[]"
        }
      ],
      "stateMutability": "view",
      "type": "function"
    },
    {
      "inputs": [
        {
          "internalType": "bytes32",
          "name": "role",
          "type": "bytes32"
        }
      ],
      "name": "getRoleAdmin",
      "outputs": [
        {
          "internalType": "bytes32",
          "name": "",
          "type": "bytes32"
        }
      ],
      "stateMutability": "view",
      "type": "function"
    },
    {
      "inputs": [
        {
          "internalType": "bytes32",
          "name": "role",
          "type": "bytes32"
        },
        {
          "internalType": "address",
          "name": "account",
          "type": "address"
        }
      ],
      "name": "grantRole",
      "outputs": [],
      "stateMutability": "nonpayable",
      "type": "function"
    },
    {
      "inputs": [
        {
          "internalType": "bytes32",
          "name": "role",
          "type": "bytes32"
        },
        {
          "internalType": "address",
          "name": "account",
          "type": "address"
        }
      ],
      "name": "hasRole",
      "outputs": [
        {
          "internalType": "bool",
          "name": "",
          "type": "bool"
        }
      ],
      "stateMutability": "view",
      "type": "function"
    },
    {
      "inputs": [
        {
          "internalType": "address",
          "name": "_treasury",
          "type": "address"
        }
      ],
      "name": "initialize",
      "outputs": [],
      "stateMutability": "nonpayable",
      "type": "function"
    },
    {
      "inputs": [],
      "name": "name",
      "outputs": [
        {
          "internalType": "string",
          "name": "",
          "type": "string"
        }
      ],
      "stateMutability": "view",
      "type": "function"
    },
    {
      "inputs": [
        {
          "internalType": "address",
          "name": "owner",
          "type": "address"
        }
      ],
      "name": "nonces",
      "outputs": [
        {
          "internalType": "uint256",
          "name": "",
          "type": "uint256"
        }
      ],
      "stateMutability": "view",
      "type": "function"
    },
    {
      "inputs": [
        {
          "internalType": "address",
          "name": "owner",
          "type": "address"
        },
        {
          "internalType": "address",
          "name": "spender",
          "type": "address"
        },
        {
          "internalType": "uint256",
          "name": "value",
          "type": "uint256"
        },
        {
          "internalType": "uint256",
          "name": "deadline",
          "type": "uint256"
        },
        {
          "internalType": "uint8",
          "name": "v",
          "type": "uint8"
        },
        {
          "internalType": "bytes32",
          "name": "r",
          "type": "bytes32"
        },
        {
          "internalType": "bytes32",
          "name": "s",
          "type": "bytes32"
        }
      ],
      "name": "permit",
      "outputs": [],
      "stateMutability": "nonpayable",
      "type": "function"
    },
    {
      "inputs": [],
      "name": "proxiableUUID",
      "outputs": [
        {
          "internalType": "bytes32",
          "name": "",
          "type": "bytes32"
        }
      ],
      "stateMutability": "view",
      "type": "function"
    },
    {
      "inputs": [
        {
          "internalType": "bytes32",
          "name": "role",
          "type": "bytes32"
        },
        {
          "internalType": "address",
          "name": "callerConfirmation",
          "type": "address"
        }
      ],
      "name": "renounceRole",
      "outputs": [],
      "stateMutability": "nonpayable",
      "type": "function"
    },
    {
      "inputs": [
        {
          "internalType": "bytes32",
          "name": "role",
          "type": "bytes32"
        },
        {
          "internalType": "address",
          "name": "account",
          "type": "address"
        }
      ],
      "name": "revokeRole",
      "outputs": [],
      "stateMutability": "nonpayable",
      "type": "function"
    },
    {
      "inputs": [
        {
          "internalType": "address",
          "name": "_treasury",
          "type": "address"
        }
      ],
      "name": "setTreasury",
      "outputs": [],
      "stateMutability": "nonpayable",
      "type": "function"
    },
    {
      "inputs": [
        {
          "internalType": "address",
          "name": "from",
          "type": "address"
        },
        {
          "internalType": "uint256",
          "name": "amount",
          "type": "uint256"
        }
      ],
      "name": "spendTokenFrom",
      "outputs": [],
      "stateMutability": "nonpayable",
      "type": "function"
    },
    {
      "inputs": [
        {
          "internalType": "bytes4",
          "name": "interfaceId",
          "type": "bytes4"
        }
      ],
      "name": "supportsInterface",
      "outputs": [
        {
          "internalType": "bool",
          "name": "",
          "type": "bool"
        }
      ],
      "stateMutability": "view",
      "type": "function"
    },
    {
      "inputs": [],
      "name": "symbol",
      "outputs": [
        {
          "internalType": "string",
          "name": "",
          "type": "string"
        }
      ],
      "stateMutability": "view",
      "type": "function"
    },
    {
      "inputs": [],
      "name": "totalSupply",
      "outputs": [
        {
          "internalType": "uint256",
          "name": "",
          "type": "uint256"
        }
      ],
      "stateMutability": "view",
      "type": "function"
    },
    {
      "inputs": [
        {
          "internalType": "address",
          "name": "to",
          "type": "address"
        },
        {
          "internalType": "uint256",
          "name": "value",
          "type": "uint256"
        }
      ],
      "name": "transfer",
      "outputs": [
        {
          "internalType": "bool",
          "name": "",
          "type": "bool"
        }
      ],
      "stateMutability": "nonpayable",
      "type": "function"
    },
    {
      "inputs": [
        {
          "internalType": "address",
          "name": "from",
          "type": "address"
        },
        {
          "internalType": "address",
          "name": "to",
          "type": "address"
        },
        {
          "internalType": "uint256",
          "name": "value",
          "type": "uint256"
        }
      ],
      "name": "transferFrom",
      "outputs": [
        {
          "internalType": "bool",
          "name": "",
          "type": "bool"
        }
      ],
      "stateMutability": "nonpayable",
      "type": "function"
    },
    {
      "inputs": [],
      "name": "treasury",
      "outputs": [
        {
          "internalType": "address",
          "name": "",
          "type": "address"
        }
      ],
      "stateMutability": "view",
      "type": "function"
    },
    {
      "inputs": [
        {
          "internalType": "address",
          "name": "newImplementation",
          "type": "address"
        },
        {
          "internalType": "bytes",
          "name": "data",
          "type": "bytes"
        }
      ],
      "name": "upgradeToAndCall",
      "outputs": [],
      "stateMutability": "payable",
      "type": "function"
    }
  ],
  "bytecode": "0x60a06040523073ffffffffffffffffffffffffffffffffffffffff1660809073ffffffffffffffffffffffffffffffffffffffff16815250348015604257600080fd5b50608051613e1561006c600039600081816117d80152818161182d0152611a0b0152613e156000f3fe6080604052600436106101d85760003560e01c806370a0823111610102578063a9059cbb11610095578063d547741f11610064578063d547741f146106df578063dd62ed3e14610708578063f0f4426014610745578063f72c0d8b1461076e576101d8565b8063a9059cbb14610625578063ad3cb1cc14610662578063c4d66de81461068d578063d505accf146106b6576101d8565b806384b0196e116100d157806384b0196e1461056157806391d148541461059257806395d89b41146105cf578063a217fddf146105fa576101d8565b806370a082311461049357806372c16a24146104d057806379cc6790146104fb5780637ecebe0014610524576101d8565b8063313ce5671161017a5780634f1ef286116101495780634f1ef286146103f857806352d1902d1461041457806361d027b31461043f57806370a018df1461046a576101d8565b8063313ce567146103505780633644e5151461037b57806336568abe146103a657806342966c68146103cf576101d8565b806318160ddd116101b657806318160ddd1461028257806323b872dd146102ad578063248a9ca3146102ea5780632f2ff15d14610327576101d8565b806301ffc9a7146101dd57806306fdde031461021a578063095ea7b314610245575b600080fd5b3480156101e957600080fd5b5061020460048036038101906101ff9190612cad565b610799565b6040516102119190612cf5565b60405180910390f35b34801561022657600080fd5b5061022f610813565b60405161023c9190612da0565b60405180910390f35b34801561025157600080fd5b5061026c60048036038101906102679190612e56565b6108b4565b6040516102799190612cf5565b60405180910390f35b34801561028e57600080fd5b506102976108d7565b6040516102a49190612ea5565b60405180910390f35b3480156102b957600080fd5b506102d460048036038101906102cf9190612ec0565b6108ef565b6040516102e19190612cf5565b60405180910390f35b3480156102f657600080fd5b50610311600480360381019061030c9190612f49565b61091e565b60405161031e9190612f85565b60405180910390f35b34801561033357600080fd5b5061034e60048036038101906103499190612fa0565b61094c565b005b34801561035c57600080fd5b5061036561096e565b6040516103729190612ffc565b60405180910390f35b34801561038757600080fd5b50610390610977565b60405161039d9190612f85565b60405180910390f35b3480156103b257600080fd5b506103cd60048036038101906103c89190612fa0565b610986565b005b3480156103db57600080fd5b506103f660048036038101906103f19190613017565b610a01565b005b610412600480360381019061040d9190613179565b610a15565b005b34801561042057600080fd5b50610429610a34565b6040516104369190612f85565b60405180910390f35b34801561044b57600080fd5b50610454610a67565b60405161046191906131e4565b60405180910390f35b34801561047657600080fd5b50610491600480360381019061048c9190612e56565b610a8b565b005b34801561049f57600080fd5b506104ba60048036038101906104b591906131ff565b610b5d565b6040516104c79190612ea5565b60405180910390f35b3480156104dc57600080fd5b506104e5610bb4565b6040516104f29190612f85565b60405180910390f35b34801561050757600080fd5b50610522600480360381019061051d9190612e56565b610bd8565b005b34801561053057600080fd5b5061054b600480360381019061054691906131ff565b610bf8565b6040516105589190612ea5565b60405180910390f35b34801561056d57600080fd5b50610576610c0a565b6040516105899796959493929190613325565b60405180910390f35b34801561059e57600080fd5b506105b960048036038101906105b49190612fa0565b610d1c565b6040516105c69190612cf5565b60405180910390f35b3480156105db57600080fd5b506105e4610d95565b6040516105f19190612da0565b60405180910390f35b34801561060657600080fd5b5061060f610e36565b60405161061c9190612f85565b60405180910390f35b34801561063157600080fd5b5061064c60048036038101906106479190612e56565b610e3d565b6040516106599190612cf5565b60405180910390f35b34801561066e57600080fd5b50610677610e60565b6040516106849190612da0565b60405180910390f35b34801561069957600080fd5b506106b460048036038101906106af91906131ff565b610e99565b005b3480156106c257600080fd5b506106dd60048036038101906106d891906133d5565b61118d565b005b3480156106eb57600080fd5b5061070660048036038101906107019190612fa0565b6111a5565b005b34801561071457600080fd5b5061072f600480360381019061072a9190613477565b6111c7565b60405161073c9190612ea5565b60405180910390f35b34801561075157600080fd5b5061076c600480360381019061076791906131ff565b61125c565b005b34801561077a57600080fd5b506107836112ad565b6040516107909190612f85565b60405180910390f35b60007f7965db0b000000000000000000000000000000000000000000000000000000007bffffffffffffffffffffffffffffffffffffffffffffffffffffffff1916827bffffffffffffffffffffffffffffffffffffffffffffffffffffffff1916148061080c575061080b826112d1565b5b9050919050565b6060600061081f61133b565b9050806003018054610830906134e6565b80601f016020809104026020016040519081016040528092919081815260200182805461085c906134e6565b80156108a95780601f1061087e576101008083540402835291602001916108a9565b820191906000526020600020905b81548152906001019060200180831161088c57829003601f168201915b505050505091505090565b6000806108bf611363565b90506108cc81858561136b565b600191505092915050565b6000806108e261133b565b9050806002015491505090565b6000806108fa611363565b905061090785828561137d565b610912858585611412565b60019150509392505050565b600080610929611506565b905080600001600084815260200190815260200160002060010154915050919050565b6109558261091e565b61095e8161152e565b6109688383611542565b50505050565b60006012905090565b6000610981611643565b905090565b61098e611363565b73ffffffffffffffffffffffffffffffffffffffff168173ffffffffffffffffffffffffffffffffffffffff16146109f2576040517f6697b23200000000000000000000000000000000000000000000000000000000815260040160405180910390fd5b6109fc8282611652565b505050565b610a12610a0c611363565b82611754565b50565b610a1d6117d6565b610a26826118bc565b610a3082826118ea565b5050565b6000610a3e611a09565b7f360894a13ba1a3210667c828492db98dca3e2076cc3735a920a3ca505d382bbc60001b905090565b60008054906101000a900473ffffffffffffffffffffffffffffffffffffffff1681565b7f7434c6f201a551bfd17336985361933e0c4935b520dac8a49d937b325f7d5c0a610ab58161152e565b81610abf84610b5d565b1015610b00576040517f08c379a0000000000000000000000000000000000000000000000000000000008152600401610af790613563565b60405180910390fd5b6000600283610b0f91906135e1565b905060008184610b1f9190613612565b9050610b2b8583611754565b610b568560008054906101000a900473ffffffffffffffffffffffffffffffffffffffff1683611412565b5050505050565b600080610b6861133b565b90508060000160008473ffffffffffffffffffffffffffffffffffffffff1673ffffffffffffffffffffffffffffffffffffffff16815260200190815260200160002054915050919050565b7f7434c6f201a551bfd17336985361933e0c4935b520dac8a49d937b325f7d5c0a81565b610bea82610be4611363565b8361137d565b610bf48282611754565b5050565b6000610c0382611a90565b9050919050565b6000606080600080600060606000610c20611ae7565b90506000801b8160000154148015610c3e57506000801b8160010154145b610c7d576040517f08c379a0000000000000000000000000000000000000000000000000000000008152600401610c7490613692565b60405180910390fd5b610c85611b0f565b610c8d611bb0565b46306000801b600067ffffffffffffffff811115610cae57610cad61304e565b5b604051908082528060200260200182016040528015610cdc5781602001602082028036833780820191505090505b507f0f0000000000000000000000000000000000000000000000000000000000000095949392919097509750975097509750975097505090919293949596565b600080610d27611506565b905080600001600085815260200190815260200160002060000160008473ffffffffffffffffffffffffffffffffffffffff1673ffffffffffffffffffffffffffffffffffffffff16815260200190815260200160002060009054906101000a900460ff1691505092915050565b60606000610da161133b565b9050806004018054610db2906134e6565b80601f0160208091040260200160405190810160405280929190818152602001828054610dde906134e6565b8015610e2b5780601f10610e0057610100808354040283529160200191610e2b565b820191906000526020600020905b815481529060010190602001808311610e0e57829003601f168201915b505050505091505090565b6000801b81565b600080610e48611363565b9050610e55818585611412565b600191505092915050565b6040518060400160405280600581526020017f352e302e3000000000000000000000000000000000000000000000000000000081525081565b6000610ea3611c51565b905060008160000160089054906101000a900460ff1615905060008260000160009054906101000a900467ffffffffffffffff1690506000808267ffffffffffffffff16148015610ef15750825b9050600060018367ffffffffffffffff16148015610f26575060003073ffffffffffffffffffffffffffffffffffffffff163b145b905081158015610f34575080155b15610f6b576040517ff92ee8a900000000000000000000000000000000000000000000000000000000815260040160405180910390fd5b60018560000160006101000a81548167ffffffffffffffff021916908367ffffffffffffffff1602179055508315610fbb5760018560000160086101000a81548160ff0219169083151502179055505b61102f6040518060400160405280600e81526020017f596170546f6b656e5465737456320000000000000000000000000000000000008152506040518060400160405280600381526020017f5941500000000000000000000000000000000000000000000000000000000000815250611c65565b611037611c7b565b6110756040518060400160405280600e81526020017f596170546f6b656e546573745632000000000000000000000000000000000000815250611c85565b61107d611ccf565b611085611cd9565b6110926000801b33611542565b506110bd7f189ab7a9244df0848122154315af71fe140f3db0fe014031783b0946b8c9d2e333611542565b50856000806101000a81548173ffffffffffffffffffffffffffffffffffffffff021916908373ffffffffffffffffffffffffffffffffffffffff1602179055506111293361110a61096e565b600a61111691906137e5565b620f42406111249190613830565b611ce3565b83156111855760008560000160086101000a81548160ff0219169083151502179055507fc7f505b2f371ae2175ee4913f4499e1f2633a7b5936321eed1cdaeb6115181d2600160405161117c91906138cb565b60405180910390a15b505050505050565b61119c87878787878787611d65565b50505050505050565b6111ae8261091e565b6111b78161152e565b6111c18383611652565b50505050565b6000806111d261133b565b90508060010160008573ffffffffffffffffffffffffffffffffffffffff1673ffffffffffffffffffffffffffffffffffffffff16815260200190815260200160002060008473ffffffffffffffffffffffffffffffffffffffff1673ffffffffffffffffffffffffffffffffffffffff1681526020019081526020016000205491505092915050565b6000801b6112698161152e565b816000806101000a81548173ffffffffffffffffffffffffffffffffffffffff021916908373ffffffffffffffffffffffffffffffffffffffff1602179055505050565b7f189ab7a9244df0848122154315af71fe140f3db0fe014031783b0946b8c9d2e381565b60007f01ffc9a7000000000000000000000000000000000000000000000000000000007bffffffffffffffffffffffffffffffffffffffffffffffffffffffff1916827bffffffffffffffffffffffffffffffffffffffffffffffffffffffff1916149050919050565b60007f52c63247e1f47db19d5ce0460030c497f067ca4cebf71ba98eeadabe20bace00905090565b600033905090565b6113788383836001611ead565b505050565b600061138984846111c7565b90507fffffffffffffffffffffffffffffffffffffffffffffffffffffffffffffffff81101561140c57818110156113fc578281836040517ffb8f41b20000000000000000000000000000000000000000000000000000000081526004016113f3939291906138e6565b60405180910390fd5b61140b84848484036000611ead565b5b50505050565b600073ffffffffffffffffffffffffffffffffffffffff168373ffffffffffffffffffffffffffffffffffffffff16036114845760006040517f96c6fd1e00000000000000000000000000000000000000000000000000000000815260040161147b91906131e4565b60405180910390fd5b600073ffffffffffffffffffffffffffffffffffffffff168273ffffffffffffffffffffffffffffffffffffffff16036114f65760006040517fec442f050000000000000000000000000000000000000000000000000000000081526004016114ed91906131e4565b60405180910390fd5b611501838383612093565b505050565b60007f02dd7bc7dec4dceedda775e58dd541e08a116c6c53815c0bd028192f7b626800905090565b61153f8161153a611363565b6122d2565b50565b60008061154d611506565b90506115598484610d1c565b61163757600181600001600086815260200190815260200160002060000160008573ffffffffffffffffffffffffffffffffffffffff1673ffffffffffffffffffffffffffffffffffffffff16815260200190815260200160002060006101000a81548160ff0219169083151502179055506115d3611363565b73ffffffffffffffffffffffffffffffffffffffff168373ffffffffffffffffffffffffffffffffffffffff16857f2f8788117e7eff1d82e926ec794901d17c78024a50270940304540a733656f0d60405160405180910390a4600191505061163d565b60009150505b92915050565b600061164d612323565b905090565b60008061165d611506565b90506116698484610d1c565b1561174857600081600001600086815260200190815260200160002060000160008573ffffffffffffffffffffffffffffffffffffffff1673ffffffffffffffffffffffffffffffffffffffff16815260200190815260200160002060006101000a81548160ff0219169083151502179055506116e4611363565b73ffffffffffffffffffffffffffffffffffffffff168373ffffffffffffffffffffffffffffffffffffffff16857ff6391f5c32d9c69d2a47ea670b442974b53935d1edc7fd64eb21e047a839171b60405160405180910390a4600191505061174e565b60009150505b92915050565b600073ffffffffffffffffffffffffffffffffffffffff168273ffffffffffffffffffffffffffffffffffffffff16036117c65760006040517f96c6fd1e0000000000000000000000000000000000000000000000000000000081526004016117bd91906131e4565b60405180910390fd5b6117d282600083612093565b5050565b7f000000000000000000000000000000000000000000000000000000000000000073ffffffffffffffffffffffffffffffffffffffff163073ffffffffffffffffffffffffffffffffffffffff16148061188357507f000000000000000000000000000000000000000000000000000000000000000073ffffffffffffffffffffffffffffffffffffffff1661186a612387565b73ffffffffffffffffffffffffffffffffffffffff1614155b156118ba576040517fe07c8dba00000000000000000000000000000000000000000000000000000000815260040160405180910390fd5b565b7f189ab7a9244df0848122154315af71fe140f3db0fe014031783b0946b8c9d2e36118e68161152e565b5050565b8173ffffffffffffffffffffffffffffffffffffffff166352d1902d6040518163ffffffff1660e01b8152600401602060405180830381865afa92505050801561195257506040513d601f19601f8201168201806040525081019061194f9190613932565b60015b61199357816040517f4c9c8ce300000000000000000000000000000000000000000000000000000000815260040161198a91906131e4565b60405180910390fd5b7f360894a13ba1a3210667c828492db98dca3e2076cc3735a920a3ca505d382bbc60001b81146119fa57806040517faa1d49a40000000000000000000000000000000000000000000000000000000081526004016119f19190612f85565b60405180910390fd5b611a0483836123de565b505050565b7f000000000000000000000000000000000000000000000000000000000000000073ffffffffffffffffffffffffffffffffffffffff163073ffffffffffffffffffffffffffffffffffffffff1614611a8e576040517fe07c8dba00000000000000000000000000000000000000000000000000000000815260040160405180910390fd5b565b600080611a9b612451565b90508060000160008473ffffffffffffffffffffffffffffffffffffffff1673ffffffffffffffffffffffffffffffffffffffff16815260200190815260200160002054915050919050565b60007fa16a46d94261c7517cc8ff89f61c0ce93598e3c849801011dee649a6a557d100905090565b60606000611b1b611ae7565b9050806002018054611b2c906134e6565b80601f0160208091040260200160405190810160405280929190818152602001828054611b58906134e6565b8015611ba55780601f10611b7a57610100808354040283529160200191611ba5565b820191906000526020600020905b815481529060010190602001808311611b8857829003601f168201915b505050505091505090565b60606000611bbc611ae7565b9050806003018054611bcd906134e6565b80601f0160208091040260200160405190810160405280929190818152602001828054611bf9906134e6565b8015611c465780601f10611c1b57610100808354040283529160200191611c46565b820191906000526020600020905b815481529060010190602001808311611c2957829003601f168201915b505050505091505090565b600080611c5c612479565b90508091505090565b611c6d6124a4565b611c7782826124e4565b5050565b611c836124a4565b565b611c8d6124a4565b611ccc816040518060400160405280600181526020017f3100000000000000000000000000000000000000000000000000000000000000815250612521565b50565b611cd76124a4565b565b611ce16124a4565b565b600073ffffffffffffffffffffffffffffffffffffffff168273ffffffffffffffffffffffffffffffffffffffff1603611d555760006040517fec442f05000000000000000000000000000000000000000000000000000000008152600401611d4c91906131e4565b60405180910390fd5b611d6160008383612093565b5050565b83421115611daa57836040517f62791302000000000000000000000000000000000000000000000000000000008152600401611da19190612ea5565b60405180910390fd5b60007f6e71edae12b1b97f4d1f60370fef10105fa2faae0126114a169c64845d6126c9888888611dd98c612576565b89604051602001611def9695949392919061395f565b6040516020818303038152906040528051906020012090506000611e12826125db565b90506000611e22828787876125f5565b90508973ffffffffffffffffffffffffffffffffffffffff168173ffffffffffffffffffffffffffffffffffffffff1614611e9657808a6040517f4b800e46000000000000000000000000000000000000000000000000000000008152600401611e8d9291906139c0565b60405180910390fd5b611ea18a8a8a61136b565b50505050505050505050565b6000611eb761133b565b9050600073ffffffffffffffffffffffffffffffffffffffff168573ffffffffffffffffffffffffffffffffffffffff1603611f2b5760006040517fe602df05000000000000000000000000000000000000000000000000000000008152600401611f2291906131e4565b60405180910390fd5b600073ffffffffffffffffffffffffffffffffffffffff168473ffffffffffffffffffffffffffffffffffffffff1603611f9d5760006040517f94280d62000000000000000000000000000000000000000000000000000000008152600401611f9491906131e4565b60405180910390fd5b828160010160008773ffffffffffffffffffffffffffffffffffffffff1673ffffffffffffffffffffffffffffffffffffffff16815260200190815260200160002060008673ffffffffffffffffffffffffffffffffffffffff1673ffffffffffffffffffffffffffffffffffffffff16815260200190815260200160002081905550811561208c578373ffffffffffffffffffffffffffffffffffffffff168573ffffffffffffffffffffffffffffffffffffffff167f8c5be1e5ebec7d5bd14f71427d1e84f3dd0314c0f7b2291e5b200ac8c7c3b925856040516120839190612ea5565b60405180910390a35b5050505050565b600061209d61133b565b9050600073ffffffffffffffffffffffffffffffffffffffff168473ffffffffffffffffffffffffffffffffffffffff16036120f357818160020160008282546120e791906139e9565b925050819055506121cc565b60008160000160008673ffffffffffffffffffffffffffffffffffffffff1673ffffffffffffffffffffffffffffffffffffffff16815260200190815260200160002054905082811015612182578481846040517fe450d38c000000000000000000000000000000000000000000000000000000008152600401612179939291906138e6565b60405180910390fd5b8281038260000160008773ffffffffffffffffffffffffffffffffffffffff1673ffffffffffffffffffffffffffffffffffffffff16815260200190815260200160002081905550505b600073ffffffffffffffffffffffffffffffffffffffff168373ffffffffffffffffffffffffffffffffffffffff160361221757818160020160008282540392505081905550612267565b818160000160008573ffffffffffffffffffffffffffffffffffffffff1673ffffffffffffffffffffffffffffffffffffffff168152602001908152602001600020600082825401925050819055505b8273ffffffffffffffffffffffffffffffffffffffff168473ffffffffffffffffffffffffffffffffffffffff167fddf252ad1be2c89b69c2b068fc378daa952ba7f163c4a11628f55a4df523b3ef846040516122c49190612ea5565b60405180910390a350505050565b6122dc8282610d1c565b61231f5780826040517fe2517d3f000000000000000000000000000000000000000000000000000000008152600401612316929190613a1d565b60405180910390fd5b5050565b60007f8b73c3c69bb8fe3d512ecc4cf759cc79239f7b179b0ffacaa9a75d522b39400f61234e612625565b6123566126a1565b463060405160200161236c959493929190613a46565b60405160208183030381529060405280519060200120905090565b60006123b57f360894a13ba1a3210667c828492db98dca3e2076cc3735a920a3ca505d382bbc60001b61271d565b60000160009054906101000a900473ffffffffffffffffffffffffffffffffffffffff16905090565b6123e782612727565b8173ffffffffffffffffffffffffffffffffffffffff167fbc7cd75a20ee27fd9adebab32041f755214dbc6bffa90cc0225b39da2e5c2d3b60405160405180910390a26000815111156124445761243e82826127f4565b5061244d565b61244c612878565b5b5050565b60007f5ab42ced628888259c08ac98db1eb0cf702fc1501344311d8b100cd1bfe4bb00905090565b60007ff0c57e16840df040f15088dc2f81fe391c3923bec73e23a9662efc9c229c6a0060001b905090565b6124ac6128b5565b6124e2576040517fd7e6bcf800000000000000000000000000000000000000000000000000000000815260040160405180910390fd5b565b6124ec6124a4565b60006124f661133b565b9050828160030190816125099190613c3b565b508181600401908161251b9190613c3b565b50505050565b6125296124a4565b6000612533611ae7565b9050828160020190816125469190613c3b565b50818160030190816125589190613c3b565b506000801b81600001819055506000801b8160010181905550505050565b600080612581612451565b90508060000160008473ffffffffffffffffffffffffffffffffffffffff1673ffffffffffffffffffffffffffffffffffffffff168152602001908152602001600020600081548092919060010191905055915050919050565b60006125ee6125e8611643565b836128d5565b9050919050565b60008060008061260788888888612916565b9250925092506126178282612a0a565b829350505050949350505050565b600080612630611ae7565b9050600061263c611b0f565b90506000815111156126595780805190602001209250505061269e565b6000826000015490506000801b81146126775780935050505061269e565b7fc5d2460186f7233c927e7db2dcc703c0e500b653ca82273b7bfad8045d85a47093505050505b90565b6000806126ac611ae7565b905060006126b8611bb0565b90506000815111156126d55780805190602001209250505061271a565b6000826001015490506000801b81146126f35780935050505061271a565b7fc5d2460186f7233c927e7db2dcc703c0e500b653ca82273b7bfad8045d85a47093505050505b90565b6000819050919050565b60008173ffffffffffffffffffffffffffffffffffffffff163b0361278357806040517f4c9c8ce300000000000000000000000000000000000000000000000000000000815260040161277a91906131e4565b60405180910390fd5b806127b07f360894a13ba1a3210667c828492db98dca3e2076cc3735a920a3ca505d382bbc60001b61271d565b60000160006101000a81548173ffffffffffffffffffffffffffffffffffffffff021916908373ffffffffffffffffffffffffffffffffffffffff16021790555050565b60606000808473ffffffffffffffffffffffffffffffffffffffff168460405161281e9190613d54565b600060405180830381855af49150503d8060008114612859576040519150601f19603f3d011682016040523d82523d6000602084013e61285e565b606091505b509150915061286e858383612b6e565b9250505092915050565b60003411156128b3576040517fb398979f00000000000000000000000000000000000000000000000000000000815260040160405180910390fd5b565b60006128bf611c51565b60000160089054906101000a900460ff16905090565b60006040517f190100000000000000000000000000000000000000000000000000000000000081528360028201528260228201526042812091505092915050565b60008060007f7fffffffffffffffffffffffffffffff5d576e7357a4501ddfe92f46681b20a08460001c1115612956576000600385925092509250612a00565b60006001888888886040516000815260200160405260405161297b9493929190613d6b565b6020604051602081039080840390855afa15801561299d573d6000803e3d6000fd5b505050602060405103519050600073ffffffffffffffffffffffffffffffffffffffff168173ffffffffffffffffffffffffffffffffffffffff16036129f157600060016000801b93509350935050612a00565b8060008060001b935093509350505b9450945094915050565b60006003811115612a1e57612a1d613db0565b5b826003811115612a3157612a30613db0565b5b0315612b6a5760016003811115612a4b57612a4a613db0565b5b826003811115612a5e57612a5d613db0565b5b03612a95576040517ff645eedf00000000000000000000000000000000000000000000000000000000815260040160405180910390fd5b60026003811115612aa957612aa8613db0565b5b826003811115612abc57612abb613db0565b5b03612b01578060001c6040517ffce698f7000000000000000000000000000000000000000000000000000000008152600401612af89190612ea5565b60405180910390fd5b600380811115612b1457612b13613db0565b5b826003811115612b2757612b26613db0565b5b03612b6957806040517fd78bce0c000000000000000000000000000000000000000000000000000000008152600401612b609190612f85565b60405180910390fd5b5b5050565b606082612b8357612b7e82612bfd565b612bf5565b60008251148015612bab575060008473ffffffffffffffffffffffffffffffffffffffff163b145b15612bed57836040517f9996b315000000000000000000000000000000000000000000000000000000008152600401612be491906131e4565b60405180910390fd5b819050612bf6565b5b9392505050565b600081511115612c0f57805160208201fd5b6040517fd6bda27500000000000000000000000000000000000000000000000000000000815260040160405180910390fd5b6000604051905090565b600080fd5b600080fd5b60007fffffffff0000000000000000000000000000000000000000000000000000000082169050919050565b612c8a81612c55565b8114612c9557600080fd5b50565b600081359050612ca781612c81565b92915050565b600060208284031215612cc357612cc2612c4b565b5b6000612cd184828501612c98565b91505092915050565b60008115159050919050565b612cef81612cda565b82525050565b6000602082019050612d0a6000830184612ce6565b92915050565b600081519050919050565b600082825260208201905092915050565b60005b83811015612d4a578082015181840152602081019050612d2f565b60008484015250505050565b6000601f19601f8301169050919050565b6000612d7282612d10565b612d7c8185612d1b565b9350612d8c818560208601612d2c565b612d9581612d56565b840191505092915050565b60006020820190508181036000830152612dba8184612d67565b905092915050565b600073ffffffffffffffffffffffffffffffffffffffff82169050919050565b6000612ded82612dc2565b9050919050565b612dfd81612de2565b8114612e0857600080fd5b50565b600081359050612e1a81612df4565b92915050565b6000819050919050565b612e3381612e20565b8114612e3e57600080fd5b50565b600081359050612e5081612e2a565b92915050565b60008060408385031215612e6d57612e6c612c4b565b5b6000612e7b85828601612e0b565b9250506020612e8c85828601612e41565b9150509250929050565b612e9f81612e20565b82525050565b6000602082019050612eba6000830184612e96565b92915050565b600080600060608486031215612ed957612ed8612c4b565b5b6000612ee786828701612e0b565b9350506020612ef886828701612e0b565b9250506040612f0986828701612e41565b9150509250925092565b6000819050919050565b612f2681612f13565b8114612f3157600080fd5b50565b600081359050612f4381612f1d565b92915050565b600060208284031215612f5f57612f5e612c4b565b5b6000612f6d84828501612f34565b91505092915050565b612f7f81612f13565b82525050565b6000602082019050612f9a6000830184612f76565b92915050565b60008060408385031215612fb757612fb6612c4b565b5b6000612fc585828601612f34565b9250506020612fd685828601612e0b565b9150509250929050565b600060ff82169050919050565b612ff681612fe0565b82525050565b60006020820190506130116000830184612fed565b92915050565b60006020828403121561302d5761302c612c4b565b5b600061303b84828501612e41565b91505092915050565b600080fd5b600080fd5b7f4e487b7100000000000000000000000000000000000000000000000000000000600052604160045260246000fd5b61308682612d56565b810181811067ffffffffffffffff821117156130a5576130a461304e565b5b80604052505050565b60006130b8612c41565b90506130c4828261307d565b919050565b600067ffffffffffffffff8211156130e4576130e361304e565b5b6130ed82612d56565b9050602081019050919050565b82818337600083830152505050565b600061311c613117846130c9565b6130ae565b90508281526020810184848401111561313857613137613049565b5b6131438482856130fa565b509392505050565b600082601f8301126131605761315f613044565b5b8135613170848260208601613109565b91505092915050565b600080604083850312156131905761318f612c4b565b5b600061319e85828601612e0b565b925050602083013567ffffffffffffffff8111156131bf576131be612c50565b5b6131cb8582860161314b565b9150509250929050565b6131de81612de2565b82525050565b60006020820190506131f960008301846131d5565b92915050565b60006020828403121561321557613214612c4b565b5b600061322384828501612e0b565b91505092915050565b60007fff0000000000000000000000000000000000000000000000000000000000000082169050919050565b6132618161322c565b82525050565b600081519050919050565b600082825260208201905092915050565b6000819050602082019050919050565b61329c81612e20565b82525050565b60006132ae8383613293565b60208301905092915050565b6000602082019050919050565b60006132d282613267565b6132dc8185613272565b93506132e783613283565b8060005b838110156133185781516132ff88826132a2565b975061330a836132ba565b9250506001810190506132eb565b5085935050505092915050565b600060e08201905061333a600083018a613258565b818103602083015261334c8189612d67565b905081810360408301526133608188612d67565b905061336f6060830187612e96565b61337c60808301866131d5565b61338960a0830185612f76565b81810360c083015261339b81846132c7565b905098975050505050505050565b6133b281612fe0565b81146133bd57600080fd5b50565b6000813590506133cf816133a9565b92915050565b600080600080600080600060e0888a0312156133f4576133f3612c4b565b5b60006134028a828b01612e0b565b97505060206134138a828b01612e0b565b96505060406134248a828b01612e41565b95505060606134358a828b01612e41565b94505060806134468a828b016133c0565b93505060a06134578a828b01612f34565b92505060c06134688a828b01612f34565b91505092959891949750929550565b6000806040838503121561348e5761348d612c4b565b5b600061349c85828601612e0b565b92505060206134ad85828601612e0b565b9150509250929050565b7f4e487b7100000000000000000000000000000000000000000000000000000000600052602260045260246000fd5b600060028204905060018216806134fe57607f821691505b602082108103613511576135106134b7565b5b50919050565b7f496e73756666696369656e742062616c616e6365000000000000000000000000600082015250565b600061354d601483612d1b565b915061355882613517565b602082019050919050565b6000602082019050818103600083015261357c81613540565b9050919050565b7f4e487b7100000000000000000000000000000000000000000000000000000000600052601260045260246000fd5b7f4e487b7100000000000000000000000000000000000000000000000000000000600052601160045260246000fd5b60006135ec82612e20565b91506135f783612e20565b92508261360757613606613583565b5b828204905092915050565b600061361d82612e20565b915061362883612e20565b92508282039050818111156136405761363f6135b2565b5b92915050565b7f4549503731323a20556e696e697469616c697a65640000000000000000000000600082015250565b600061367c601583612d1b565b915061368782613646565b602082019050919050565b600060208201905081810360008301526136ab8161366f565b9050919050565b60008160011c9050919050565b6000808291508390505b6001851115613709578086048111156136e5576136e46135b2565b5b60018516156136f45780820291505b8081029050613702856136b2565b94506136c9565b94509492505050565b60008261372257600190506137de565b8161373057600090506137de565b816001811461374657600281146137505761377f565b60019150506137de565b60ff841115613762576137616135b2565b5b8360020a915084821115613779576137786135b2565b5b506137de565b5060208310610133831016604e8410600b84101617156137b45782820a9050838111156137af576137ae6135b2565b5b6137de565b6137c184848460016136bf565b925090508184048111156137d8576137d76135b2565b5b81810290505b9392505050565b60006137f082612e20565b91506137fb83612fe0565b92506138287fffffffffffffffffffffffffffffffffffffffffffffffffffffffffffffffff8484613712565b905092915050565b600061383b82612e20565b915061384683612e20565b925082820261385481612e20565b9150828204841483151761386b5761386a6135b2565b5b5092915050565b6000819050919050565b600067ffffffffffffffff82169050919050565b6000819050919050565b60006138b56138b06138ab84613872565b613890565b61387c565b9050919050565b6138c58161389a565b82525050565b60006020820190506138e060008301846138bc565b92915050565b60006060820190506138fb60008301866131d5565b6139086020830185612e96565b6139156040830184612e96565b949350505050565b60008151905061392c81612f1d565b92915050565b60006020828403121561394857613947612c4b565b5b60006139568482850161391d565b91505092915050565b600060c0820190506139746000830189612f76565b61398160208301886131d5565b61398e60408301876131d5565b61399b6060830186612e96565b6139a86080830185612e96565b6139b560a0830184612e96565b979650505050505050565b60006040820190506139d560008301856131d5565b6139e260208301846131d5565b9392505050565b60006139f482612e20565b91506139ff83612e20565b9250828201905080821115613a1757613a166135b2565b5b92915050565b6000604082019050613a3260008301856131d5565b613a3f6020830184612f76565b9392505050565b600060a082019050613a5b6000830188612f76565b613a686020830187612f76565b613a756040830186612f76565b613a826060830185612e96565b613a8f60808301846131d5565b9695505050505050565b60008190508160005260206000209050919050565b60006020601f8301049050919050565b600082821b905092915050565b600060088302613afb7fffffffffffffffffffffffffffffffffffffffffffffffffffffffffffffffff82613abe565b613b058683613abe565b95508019841693508086168417925050509392505050565b6000613b38613b33613b2e84612e20565b613890565b612e20565b9050919050565b6000819050919050565b613b5283613b1d565b613b66613b5e82613b3f565b848454613acb565b825550505050565b600090565b613b7b613b6e565b613b86818484613b49565b505050565b5b81811015613baa57613b9f600082613b73565b600181019050613b8c565b5050565b601f821115613bef57613bc081613a99565b613bc984613aae565b81016020851015613bd8578190505b613bec613be485613aae565b830182613b8b565b50505b505050565b600082821c905092915050565b6000613c1260001984600802613bf4565b1980831691505092915050565b6000613c2b8383613c01565b9150826002028217905092915050565b613c4482612d10565b67ffffffffffffffff811115613c5d57613c5c61304e565b5b613c6782546134e6565b613c72828285613bae565b600060209050601f831160018114613ca55760008415613c93578287015190505b613c9d8582613c1f565b865550613d05565b601f198416613cb386613a99565b60005b82811015613cdb57848901518255600182019150602085019450602081019050613cb6565b86831015613cf85784890151613cf4601f891682613c01565b8355505b6001600288020188555050505b505050505050565b600081519050919050565b600081905092915050565b6000613d2e82613d0d565b613d388185613d18565b9350613d48818560208601612d2c565b80840191505092915050565b6000613d608284613d23565b915081905092915050565b6000608082019050613d806000830187612f76565b613d8d6020830186612fed565b613d9a6040830185612f76565b613da76060830184612f76565b95945050505050565b7f4e487b7100000000000000000000000000000000000000000000000000000000600052602160045260246000fdfea26469706673582212209b6dbe75cad9409600cb1e4b646e152e26dce23b8a45cd58883ee74e24622b0564736f6c634300081c0033",
  "linkReferences": {},
  "deployedLinkReferences": {}
}